:020000040800F2
:1000000088C80120158800088188000881880008B8
:1000100081880008818800088188000800000000AD
:1000200000000000000000000000000081880008BF
:10003000818800080000000081880008894F0008BE
:10004000818800088188000881880008818800086C
:10005000818800088188000881880008818800085C
:10006000818800088188000881880008818800084C
:10007000818800088188000881880008818800083C
:10008000818800088188000881880008818800082C
:10009000818800088188000881880008818800081C
:1000A000818800088188000881880008818800080C
:1000B000F944000829460008818800088188000862
:1000C00081880008818800088188000881880008EC
:1000D00081880008818800088188000881880008DC
:1000E00081880008818800088188000881880008CC
:1000F00081880008818800088188000881880008BC
:100100008188000881880008B94D000881880008AE
:100110008188000881880008F14A00088188000869
:10012000818800088188000881880008818800088B
:10013000818800088188000881880008818800087B
:10014000818800088188000881880008818800086B
:10015000818800088188000881880008818800085B
:10016000818800088188000881880008818800084B
:10017000818800088188000881880008818800083B
:08018000818800088188000855
:1001880010B5054C237833B9044B13B10448AFF3C9
:1001980000800123237010BD90C8012000000000DA
:1001A800ACC7000808B5064B1BB106480649AFF3B3
:1001B80000800648036813B1054B03B1984708BD92
:1001C80000000000ACC7000894C801208C0800207B
:1001D8000000000081F0004102E000BF83F000430E
:1001E80030B54FEA41044FEA430594EA050F08BFCA
:1001F80090EA020F1FBF54EA000C55EA020C7FEA8E
:10020800645C7FEA655C00F0E2804FEA5454D4EB0A
:100218005555B8BF6D420CDD2C4480EA020281EAD4
:10022800030382EA000083EA010180EA020281EA0C
:100238000303362D88BF30BD11F0004F4FEA01315E
:100248004FF4801C4CEA113102D0404261EB41016D
:1002580013F0004F4FEA03334CEA133302D05242F3
:1002680063EB430394EA050F00F0A780A4F10104AF
:10027800D5F1200E0DDB02FA0EFC22FA05F28018E9
:1002880041F1000103FA0EF2801843FA05F35941CF
:100298000EE0A5F120050EF1200E012A03FA0EFC4E
:1002A80028BF4CF0020C43FA05F3C01851EBE37178
:1002B80001F0004507D54FF0000EDCF1000C7EEB95
:1002C80000006EEB0101B1F5801F1BD3B1F5001FD3
:1002D8000CD349085FEA30004FEA3C0C04F10104F2
:1002E8004FEA445212F5800F80F09A80BCF1004F1B
:1002F80008BF5FEA500C50F1000041EB045141EA9D
:10030800050130BD5FEA4C0C404141EB010111F49D
:10031800801FA4F10104E9D191F0000F04BF014648
:100328000020B1FA81F308BF2033A3F10B03B3F126
:1003380020020CDA0C3208DD02F1140CC2F10C02B6
:1003480001FA0CF021FA02F10CE002F11402D8BF14
:10035800C2F1200C01FA02F120FA0CFCDCBF41EAE0
:100368000C019040E41AA2BF01EB0451294330BDAF
:100378006FEA04041F3C1CDA0C340EDC04F114048C
:10038800C4F1200220FA04F001FA02F340EA030063
:1003980021FA04F345EA030130BDC4F10C04C4F1A9
:1003A800200220FA02F001FA04F340EA0300294689
:1003B80030BD21FA04F0294630BD94F0000F83F4D3
:1003C800801306BF81F480110134013D4EE77FEAB6
:1003D800645C18BF7FEA655C29D094EA050F08BF02
:1003E80090EA020F05D054EA000C04BF19461046E3
:1003F80030BD91EA030F1EBF0021002030BD5FEA27
:10040800545C05D14000494128BF41F0004130BD4E
:1004180014F580043CBF01F5801130BD01F00045A2
:1004280045F0FE4141F470014FF0000030BD7FEA15
:10043800645C1ABF194610467FEA655C1CBF0B4610
:10044800024650EA013406BF52EA033591EA030F27
:1004580041F4002130BD00BF90F0000F04BF00211F
:10046800704730B54FF4806404F132044FF0000552
:100478004FF0000150E700BF90F0000F04BF0021CB
:10048800704730B54FF4806404F1320410F0004531
:1004980048BF40424FF000013EE700BF42004FEA2C
:1004A800E2014FEA31014FEA02701FBF12F07F43A9
:1004B80093F07F4F81F06051704792F0000F14BFA6
:1004C80093F07F4F704730B54FF4607401F00045EA
:1004D80021F0004120E700BF50EA010208BF704741
:1004E80030B54FF000050AE050EA010208BF704736
:1004F80030B511F0004502D5404261EB41014FF49F
:10050800806404F132045FEA915C3FF4DCAE4FF0A2
:1005180003025FEADC0C18BF03325FEADC0C18BF89
:10052800033202EBDC02C2F1200300FA03FC20FADA
:1005380002F001FA03FE40EA0E0021FA02F1144427
:10054800C1E600BF70B54FF0FF0C4CF4E06C1CEA3C
:1005580011541DBF1CEA135594EA0C0F95EA0C0FB1
:1005680000F0DEF82C4481EA030621EA4C5123EA24
:100578004C5350EA013518BF52EA033541F4801153
:1005880043F4801338D0A0FB02CE4FF00005E1FB06
:1005980002E506F00042E0FB03E54FF00006E1FB50
:1005A80003569CF0000F18BF4EF0010EA4F1FF0493
:1005B800B6F5007F64F5407404D25FEA4E0E6D41D3
:1005C80046EB060642EAC62141EA55514FEAC520E4
:1005D80040EA5E504FEACE2EB4F1FD0C88BFBCF560
:1005E800E06F1ED8BEF1004F08BF5FEA500E50F111
:1005F800000041EB045170BD06F0004646EA0101D7
:1006080040EA020081EA0301B4EB5C04C2BFD4EB08
:100618000C0541EA045170BD41F480114FF0000E01
:10062800013C00F3AB8014F1360FDEBF002001F06F
:10063800004170BDC4F10004203C35DA0C341BDCE9
:1006480004F11404C4F1200500FA05F320FA04F0BB
:1006580001FA05F240EA020001F0004221F00041EF
:1006680010EBD37021FA04F642EB06015EEA430E62
:1006780008BF20EAD37070BDC4F10C04C4F1200592
:1006880000FA04F320FA05F001FA04F240EA020045
:1006980001F0004110EBD37041F100015EEA430E16
:1006A80008BF20EAD37070BDC4F1200500FA05F236
:1006B8004EEA020E20FA04F301FA05F243EA0203B5
:1006C80021FA04F001F0004121FA04F220EA0200C4
:1006D80000EBD3705EEA430E08BF20EAD37070BD0A
:1006E80094F0000F0FD101F00046400041EB0101EA
:1006F80011F4801F08BF013CF7D041EA060195F0CC
:10070800000F18BF704703F00046520043EB030385
:1007180013F4801F08BF013DF7D043EA0603704772
:1007280094EA0C0F0CEA135518BF95EA0C0F0CD07D
:1007380050EA410618BF52EA4306D1D181EA0301C3
:1007480001F000414FF0000070BD50EA410606BFBD
:100758001046194652EA430619D094EA0C0F02D102
:1007680050EA013613D195EA0C0F05D152EA033647
:100778001CBF104619460AD181EA030101F0004165
:1007880041F0FE4141F470014FF0000070BD41F0AE
:10079800FE4141F4780170BD70B54FF0FF0C4CF488
:1007A800E06C1CEA11541DBF1CEA135594EA0C0FA7
:1007B80095EA0C0F00F0A7F8A4EB050481EA030EF4
:1007C80052EA03354FEA013100F088804FEA0333DB
:1007D8004FF0805545EA131343EA12634FEA0222A9
:1007E80045EA111545EA10654FEA00260EF000416A
:1007F8009D4208BF964244F1FD0404F5407402D2BC
:100808005B084FEA3202B61A65EB03055B084FEA4C
:1008180032024FF480104FF4002CB6EB020E75EB49
:10082800030E22BFB61A754640EA0C005B084FEA71
:100838003202B6EB020E75EB030E22BFB61A7546EE
:1008480040EA5C005B084FEA3202B6EB020E75EB39
:10085800030E22BFB61A754640EA9C005B084FEAB1
:100868003202B6EB020E75EB030E22BFB61A7546BE
:1008780040EADC0055EA060E18D04FEA051545EAAD
:1008880016754FEA06164FEAC30343EA52734FEA56
:10089800C2025FEA1C1CC0D111F4801F0BD141EACF
:1008A80000014FF000004FF0004CB6E711F4801F34
:1008B80004BF01430020B4F1FD0C88BFBCF5E06F14
:1008C8003FF6AFAEB5EB030C04BFB6EB020C5FEA24
:1008D800500C50F1000041EB045170BD0EF0004E79
:1008E8004EEA113114EB5C04C2BFD4EB0C0541EAAB
:1008F800045170BD41F480114FF0000E013C90E6A8
:1009080045EA060E8DE60CEA135594EA0C0F08BF6B
:1009180095EA0C0F3FF43BAF94EA0C0F0AD150EA6A
:1009280001347FF434AF95EA0C0F7FF425AF1046FD
:1009380019462CE795EA0C0F06D152EA03353FF425
:10094800FDAE1046194622E750EA410618BF52EAA2
:1009580043067FF4C5AE50EA41047FF40DAF52EA76
:1009680043057FF4EBAE12E74FF0FF3C06E000BF13
:100978004FF0010C02E000BF4FF0010C4DF804CD20
:100988004FEA410C7FEA6C5C4FEA430C18BF7FEAE0
:100998006C5C1BD001B050EA410C0CBF52EA430C0E
:1009A80091EA030F02BF90EA020F0020704710F18E
:1009B800000F91EA030F58BF994208BF90422CBF1D
:1009C800D8176FEAE37040F0010070474FEA410C16
:1009D8007FEA6C5C02D150EA013C07D14FEA430C34
:1009E8007FEA6C5CD6D152EA033CD3D05DF8040BA5
:1009F800704700BF8446104662468C4619466346D7
:100A080000E000BF01B5FFF7B7FF002848BF10F1AD
:100A1800000F01BD4DF808EDFFF7F4FF0CBF0120F2
:100A280000205DF808FB00BF4DF808EDFFF7EAFF6E
:100A380034BF012000205DF808FB00BF4DF808ED29
:100A4800FFF7E0FF94BF012000205DF808FB00BF1E
:100A58004DF808EDFFF7CEFF94BF012000205DF8A8
:100A680008FB00BF4DF808EDFFF7C4FF34BF0120B5
:100A780000205DF808FB00BF4FEA410212F50012A2
:100A880015D211D56FF47873B3EB625212D94FEACD
:100A9800C12343F0004343EA505311F0004F23FAB7
:100AA80002F018BF404270474FF00000704750EA0C
:100AB800013005D111F0004008BF6FF000407047C9
:100AC8004FF00000704700BF844641EA000313F06E
:100AD80003036DD1403A41D351F8043B40F8043B3D
:100AE80051F8043B40F8043B51F8043B40F8043B00
:100AF80051F8043B40F8043B51F8043B40F8043BF0
:100B080051F8043B40F8043B51F8043B40F8043BDF
:100B180051F8043B40F8043B51F8043B40F8043BCF
:100B280051F8043B40F8043B51F8043B40F8043BBF
:100B380051F8043B40F8043B51F8043B40F8043BAF
:100B480051F8043B40F8043B51F8043B40F8043B9F
:100B580051F8043B40F8043B403ABDD2303211D33F
:100B680051F8043B40F8043B51F8043B40F8043B7F
:100B780051F8043B40F8043B51F8043B40F8043B6F
:100B8800103AEDD20C3205D351F8043B40F8043B3F
:100B9800043AF9D2043208D0D2071CBF11F8013B3D
:100BA80000F8013B01D30B8803806046704700BF03
:100BB800082A13D38B078DD010F003038AD0C3F112
:100BC8000403D21ADB071CBF11F8013B00F8013BF4
:100BD80080D331F8023B20F8023B7BE7043AD9D3B3
:100BE800013A11F8013B00F8013BF9D20B78037088
:100BF8004B7843708B788370604670474BB942B925
:100C0800002908BF002802D04FF0FF31084600F045
:100C18003BB882B0EC462DE9005000F01DF8DDF835
:100C280004E002B00CBC70472DE97043069E1446E0
:100C38001D468046894600F029F804FB01F300FBB5
:100C48000533A4FB00451D44B8EB040469EB050516
:100C5800C6E90045BDE870832DE97043069E144639
:100C6800804689461D4600F05DF900FB05F504FB4A
:100C78000153A0FB04451D44B8EB040469EB0505CA
:100C8800C6E90045BDE87083704700BF00292DE91B
:100C9800F00FC0F29F800024002BC0F2968015460A
:100CA80006460F46002B3ED18A4257D9B2FA82F344
:100CB8004BB1C3F1200201FA03F720FA02F29D407A
:100CC800174300FA03F6290CB7FBF1F2330C01FBCA
:100CD800127CA8B243EA0C4700FB02F3BB4209D9D5
:100CE8007F1902F1FF3C80F00181BB4240F2FE8097
:100CF800023A2F44FF1AB7FBF1F3B6B201FB1371A6
:100D080046EA014100FB03F0884208D9491903F17A
:100D1800FF3780F0ED80884240F2EA80023B43EAE8
:100D28000242002303E08B420AD900231A461046E8
:100D3800194614B1404261EB4101BDE8F00F70471C
:100D4800B3FA83F8B8F1000F40F084808B4202D3E5
:100D5800824200F2DE8000230122E8E712B9012373
:100D6800B3FBF2F5B5FA85F2002A39D17F1B280CBE
:100D78001FFA85FC0123B7FBF0F1320C00FB117759
:100D880042EA07470CFB01F2BA4207D97F1901F181
:100D9800FF3802D2BA4200F2C1804146BF1AB7FBFF
:100DA800F0F2B6B200FB127046EA00400CFB02FCFF
:100DB800844507D9401902F1FF3702D2844500F271
:100DC800AB803A4642EA0142B1E7E443524263EB60
:100DD800430364E7404261EB41014FF0FF345BE7B6
:100DE8009540C2F1200327FA03F1280C26FA03F3F1
:100DF8009740B1FBF0F81F433B0C00FB18111FFA9A
:100E080085FC43EA01410CFB08F38B4206FA02F623
:100E180008D9491908F1FF3279D28B4277D9A8F15C
:100E280002082944C91AB1FBF0F3BFB200FB131141
:100E380047EA01470CFB03F2BA4207D97F1903F1CD
:100E4800FF3160D2BA425ED9023B2F44BF1A43EA4F
:100E5800084390E7C8F1200203FA08FC25FA02F3D8
:100E680043EA0C0C4FEA1C4921FA02F301FA08F78D
:100E780020FA02F2B3FBF9F1174309FB11333A0CDC
:100E88001FFA8CFB42EA03430BFB01FA9A4505FA69
:100E980008F008D913EB0C0301F1FF3235D29A455B
:100EA80033D902396344CAEB0303B3FBF9F209FBF4
:100EB8001233BFB247EA03470BFB02F9B94508D919
:100EC80017EB0C0702F1FF331BD2B94519D9023AC7
:100ED800674442EA0145A5FB0001C9EB07078F42B9
:100EE8004FF000030AD305D02A4620E7624601E7FF
:100EF8003B4614E706FA08F68642F5D26A1E002336
:100F080015E71A46E5E70B46A0E71146CBE79046FA
:100F180088E7434642460AE7023A53E702392F4434
:100F28003CE700BF2DE9F00F144605460E46002B9E
:100F380043D18A4253D9B2FA82F757B1C7F1200692
:100F480020FA06F601FA07F302FA07F41E4300FA3C
:100F580007F5210CB6FBF1F22B0C01FB1267A0B2CE
:100F680043EA074600FB02F3B34209D9361902F1F6
:100F7800FF3780F0F680B34240F2F380023A26440D
:100F8800F61AB6FBF1F3ADB201FB136145EA014174
:100F980000FB03F0884208D9091903F1FF3680F0F5
:100FA800E280884240F2DF80023B43EA02420023AB
:100FB80010461946BDE8F00F70478B424AD8B3FA7D
:100FC80083F6002E4DD18B4202D3824200F2D680A6
:100FD8000023012210461946BDE8F00F704712B9E8
:100FE8000124B4FBF2F4B4FA84F2002A7CD1091B80
:100FF800260CA7B20123B1FBF6F02A0C06FB101150
:1010080042EA014107FB00F28A4207D9091900F1B7
:10101800FF3C02D28A4200F2C3806046891AB1FBC3
:10102800F6F2ADB206FB121145EA014507FB02F7DD
:10103800AF4208D92C1902F1FF3180F09680A742FF
:1010480040F29380023A42EA004210461946BDE84F
:10105800F00F704700231A4610461946BDE8F00FF6
:101068007047C6F1200522FA05F4B3401C434FEA45
:10107800144821FA05F301FA06F720FA05F5B3FB3F
:10108800F8FC2F4308FB1C333D0C1FFA84FA45EA91
:1010980003430AFB0CF9994502FA06FB04D91B190C
:1010A8000CF1FF326DD39446C9EB0303B3FBF8F59B
:1010B80008FB1533BFB247EA03470AFB05F8B845F2
:1010C80004D93F1905F1FF3361D31D4645EA0C4C9D
:1010D800ACFB0B23C8EB07079F424FF0000549D331
:1010E80045D062462B4663E79440C2F1200321FABB
:1010F80003FC260C20FA03F301FA02F5BCFBF6F810
:1011080043EA05010B0C06FB18CCA7B243EA0C4CCA
:1011180007FB08F3634500FA02F509D91CEB040C38
:1011280008F1FF323AD2634538D9A8F10208A4443D
:10113800C3EB0C0CBCFBF6F389B206FB13CC41EAFB
:101148000C4107FB03F28A4207D9091903F1FF3062
:1011580022D28A4220D9023B2144891A43EA084311
:1011680049E73A460CE733461FE70A466BE7B040C3
:101178009042B6D20CF1FF32002319E733463246CB
:1011880016E799458FD9ACF1020C23448CE7B84592
:101198009BD9023D274499E70346DEE79046C7E717
:1011A800023821443AE700BF80B485B000AF7860C8
:1011B8000B4B1B68002B02D1094B0A4A1A60084BDB
:1011C8001B68FB60064B1A687B681A44044B1A605C
:1011D800FB6818461437BD465DF8047B704700BFAE
:1011E800ACC8012008CF012080B485B000AF78607A
:1011F80039601E4B00221A703B68FF2B01D9FF2370
:101208003B600023FB6021E07A68FB6813441B788D
:101218005BB2602B0FDD7A68FB6813441B785BB206
:101228007A2B08DC7A68FB6813441B78DBB2203B16
:10123800DBB2DBB203E07A68FB6813441B780B4926
:10124800FA680A441370FB680133FB60FA683B686C
:101258009A42D9D3054AFB68134400221A70034BFB
:1012680018461437BD465DF8047B7047B0C80120A6
:1012780080B59CB000AF284B9B69184602F0CAF8AD
:10128800254B1A6807F16603104600211A4604F038
:10129800B7F8F866FB6E002B01D0FB6E37E0B7F8A5
:1012A80066303A4610461D491A4608F00FF81A4BA0
:1012B8009A693B4610460A21012202F033F9164B7F
:1012C8009B69184602F09AF803F034FE034603F5CA
:1012D800FA73BB6612484FF4807106F03DFC034672
:1012E800012B0DD000BF0E484FF4807106F034FC7E
:1012F8000346012BF7D1C82003F028FE002306E09F
:1013080003F018FE0246BB6E9A42E3D3B3E71846D1
:101318007037BD4680BD00BFE8CE0120C8C70008B1
:101328000008024080B59CB000AF224B9B6918466C
:1013380002F070F81F4B5B69184603F04DFBF86626
:101348003B1D18461C49FA6E07F0C0FF194B9A69F5
:101358003B1D10460A21012202F0E4F8154B9B6957
:10136800184602F04BF803F0E5FD034603F5FA735F
:10137800BB6612484FF4807106F0EEFB0346012B62
:101388000DD000BF0D484FF4807106F0E5FB034611
:10139800012BF7D1C82003F0D9FD002306E003F0A4
:1013A800C9FD0246BB6E9A42E3D3BEE718467037C2
:1013B800BD4680BDE8CE0120D8C70008000802401D
:1013C80080B5C2B000AF002387F807315B4B9B693B
:1013D800184602F01FF8594B5B69184603F0ECFAFF
:1013E800034687F8073197F8073103F00203002B0B
:1013F80014BF00230123DBB23A1D104650491A4698
:1014080007F064FF4D4B9A693B1D10460A210122E3
:1014180002F088F897F8073103F00403002B14BF93
:1014280000230123DBB23A1D104646491A4607F04D
:101438004DFF424B9A693B1D10460A210A2202F0D1
:1014480071F897F8073103F01003002B14BF00233D
:101458000123DBB23A1D10463B491A4607F036FF16
:10146800364B9A693B1D10460A21132202F05AF89E
:1014780097F8073103F00103002B14BF0023012361
:10148800DBB23A1D104631491A4607F01FFF2B4BB5
:101498009A693B1D10460A211C2202F043F897F86E
:1014A800073103F00803002B14BF00230123DBB22C
:1014B8003A1D104626491A4607F008FF1F4B9A693D
:1014C8003B1D10460A21252202F02CF897F8073117
:1014D80003F02003002B14BF00230123DBB23A1DC5
:1014E80010461C491A4607F0F1FE144B9A693B1D39
:1014F80010460A212E2202F015F8104B9B69184657
:1015080001F07CFF322003F021FD13484FF4807175
:1015180006F022FB0346012B09D000BF0E484FF40A
:10152800807106F019FB0346012BF7D100E04DE767
:101538000023184607F58477BD4680BDE8CE012014
:10154800E8C70008F8C7000808C8000818C8000855
:1015580028C8000838C80008000802400000000039
:1015680080B500AF02F0C4FD4FF4FA6003F0EEFC62
:1015780040F205100021002203F0C2FF9FED120B7C
:101588009FED131B002004F0EFF89FED130B9FED68
:10159800101B002004F0E8F8AB200021002203F023
:1015A800AFFF9FED0D0B9FED0A1B002004F0DCF848
:1015B80055200021002203F0A3FF02F0B5FD00230F
:1015C800184680BDAFF3008000000000008056C0C0
:1015D8000000000000005640000000000080564057
:1015E80080B582B000AF03F0A5F978607B68002B66
:1015F80001D07B6826E01848002103F0CBF9786019
:101608007B68002B01D07B681CE002F071FD4FF471
:10161800FA7003F09BFC40F2DC500021002203F03A
:101628006FFF9FED0B0B04F0D3F940F2DC50002163
:10163800002203F065FF4FF47A7003F087FC02F094
:1016480073FD002318460837BD4680BDAFF3008000
:101658000000000000806640DCCE0120AFF300806F
:1016680080B582B000AF02F043FD4FF4FA6003F09A
:101678006DFC00237B6014E04FF4077021210022E9
:1016880003F03EFF4FF4FA6003F060FC9FED0C0B93
:1016980004F09EF94FF4FA6003F058FC7B680133BC
:1016A8007B607B68032BE7DD4FF47A7003F04EFC18
:1016B80002F03AFD002318460837BD4680BD00BF3A
:1016C80000000000008066402DE9F0438BB000AFB9
:1016D800F860B9603B601346FB716B461E463B6879
:1016E8001B78013BBB613B681B78DAB24FF0000303
:1016F8004FEAC30949EA52794FEAC2083B681B78A6
:10170800DAB24FF00003DD0045EA5275D4003B68B9
:101718001B780733DB08DB00ADEB030D6B460033AA
:101728007B613B689B78FA799A4225D33B68DB78E2
:10173800FA799A4220D8002387F8273015E097F8DD
:1017480027303A685168FA79203A3868007800FBFF
:1017580002F097F8272002440A4411787A69D15494
:1017680097F82730013387F827303B681B7897F8BC
:1017780027209A42E3D313E0002387F8273009E0B3
:1017880097F827307A69FF21D15497F82730013329
:1017980087F827303B681B7897F827209A42EFD3C1
:1017A80000233B6232E00023FB6125E00023FB7449
:1017B8007A693B6A13441B781A46FB69C3F107032D
:1017C80002FA03F3FB74FB7CDB09FB74FB7C002B44
:1017D8000FD0FB68DAB23B6ADBB21344DAB2BB68FB
:1017E800D9B2FB69DBB20B44DBB21046194601F0F3
:1017F8007BF9FB690133FB613B685B7801331A466F
:10180800FB699A42D2D83B6A01333B623B681B783A
:101818001A463B6A9A42C6D8B5462C37BD46BDE83B
:10182800F08300BF80B582B000AF0346FB7101F0C2
:1018380013FD01F03DFD99484FF48061012206F047
:10184800C1F90A2003F082FB94484FF4806100221A
:1018580006F0B8F90A2003F079FB90484FF480614C
:10186800012206F0AFF9142003F070FB8B484FF407
:10187800805106F099F900BF00BF00BF00BF00BF4C
:1018880000BF00BF00BF00BF84484FF4006106F0EE
:101898008BF900BF00BF00BF00BF00BF00BF00BF83
:1018A80000BF00BF7E48AE2106F03CFC00BF00BF71
:1018B80000BF00BF00BF00BF00BF00BF00BF00BF28
:1018C8007748802106F03CFC0346012BF8D000BF86
:1018D80000BF00BF00BF00BF00BF00BF00BF00BF08
:1018E8006E484FF4805106F051F900BF00BF00BFA9
:1018F80000BF00BF00BF00BF00BF00BF67484FF474
:10190800805106F051F900BF00BF00BF00BF00BF03
:1019180000BF00BF00BF00BF60484FF4006106F081
:1019280043F900BF00BF00BF00BF00BF00BF00BF3A
:1019380000BF00BF5A48002106F0F4FB00BF00BFFB
:1019480000BF00BF00BF00BF00BF00BF00BF00BF97
:101958005348802106F0F4FB0346012BF8D000BF62
:1019680000BF00BF00BF00BF00BF00BF00BF00BF77
:101978004A484FF4805106F009F900BF00BF00BF84
:1019880000BF00BF00BF00BF00BF00BF43484FF407
:10199800805106F009F900BF00BF00BF00BF00BFBB
:1019A80000BF00BF00BF00BF3C484FF4006106F015
:1019B800FBF800BF00BF00BF00BF00BF00BF00BFF3
:1019C80000BF00BF3648102106F0ACFB00BF00BFC7
:1019D80000BF00BF00BF00BF00BF00BF00BF00BF07
:1019E8002F48802106F0ACFB0346012BF8D000BF3E
:1019F80000BF00BF00BF00BF00BF00BF00BF00BFE7
:101A080026484FF4805106F0C1F800BF00BF00BF60
:101A180000BF00BF00BF00BF00BF00BF1F484FF49A
:101A2800805106F0C1F800BF00BF00BF00BF00BF73
:101A380000BF00BF00BF00BF18484FF4006106F0A8
:101A4800B3F800BF00BF00BF00BF00BF00BF00BFAA
:101A580000BF00BF1248402106F064FB00BF00BF72
:101A680000BF00BF00BF00BF00BF00BF00BF00BF76
:101A78000B48802106F064FB0346012BF8D000BF19
:101A880000BF00BF00BF00BF00BF00BF00BF00BF56
:101A980002484FF4805106F079F803E00004024050
:101AA8000038004000BF00BF00BF00BF00BF00BF3C
:101AB80000BF00BF00BF6E484FF4805106F074F8B5
:101AC80000BF00BF00BF00BF00BF00BF00BF00BF16
:101AD80000BF67484FF4006106F066F800BF00BF1A
:101AE80000BF00BF00BF00BF00BF00BF00BF61480C
:101AF800812106F017FB00BF00BF00BF00BF00BF79
:101B080000BF00BF00BF00BF00BF5A48802106F0D9
:101B180017FB0346012BF8D000BF00BF00BF00BF72
:101B280000BF00BF00BF00BF00BF51484FF4805145
:101B380006F02CF800BF00BF00BF00BF00BF00BF09
:101B480000BF00BF00BF4A484FF4805106F02CF890
:101B580000BF00BF00BF00BF00BF00BF00BF00BF85
:101B680000BF43484FF4006106F01EF800BF00BFF5
:101B780000BF00BF00BF00BF00BF00BF00BF3D489F
:101B8800822106F0CFFA00BF00BF00BF00BF00BF30
:101B980000BF00BF00BF00BF00BF3648802106F06D
:101BA800CFFA0346012BF8D000BF00BF00BF00BF2B
:101BB80000BF00BF00BF00BF00BF2D484FF48051D9
:101BC80005F0E4FF00BF00BF00BF00BF00BF00BFBB
:101BD80000BF00BF00BFFB79012B4DD124484FF453
:101BE800805105F0E1FF00BF00BF00BF00BF00BF8C
:101BF80000BF00BF00BF00BF1D484FF4006105F0E3
:101C0800D3FF00BF00BF00BF00BF00BF00BF00BFC1
:101C180000BF00BF17489F2106F084FA00BF00BF2D
:101C280000BF00BF00BF00BF00BF00BF00BF00BFB4
:101C38001048802106F084FA0346012BF8D000BF33
:101C480000BF00BF00BF00BF00BF00BF00BF00BF94
:101C580007484FF4805105F099FF00BF00BF00BF4F
:101C680000BF00BF00BF00BF00BF00BF4CE000BF07
:101C7800000402400038004094484FF4805105F0B9
:101C880093FF00BF00BF00BF00BF00BF00BF00BF81
:101C980000BF00BF8D484FF4006105F085FF00BF0D
:101CA80000BF00BF00BF00BF00BF00BF00BF00BF34
:101CB8008748CF2106F036FA00BF00BF00BF00BF3B
:101CC80000BF00BF00BF00BF00BF00BF8048802129
:101CD80006F036FA0346012BF8D000BF00BF00BF5C
:101CE80000BF00BF00BF00BF00BF00BF77484FF470
:101CF800805105F04BFF00BF00BF00BF00BF00BF11
:101D080000BF00BF00BF00BF70484FF4805105F00E
:101D18004BFF00BF00BF00BF00BF00BF00BF00BF38
:101D280000BF00BF69484FF4006105F03DFF00BFE8
:101D380000BF00BF00BF00BF00BF00BF00BF00BFA3
:101D48006348A12106F0EEF900BF00BF00BF00BF45
:101D580000BF00BF00BF00BF00BF00BF5C488021BC
:101D680006F0EEF90346012BF8D000BF00BF00BF14
:101D780000BF00BF00BF00BF00BF00BF53484FF403
:101D8800805105F003FF00BF00BF00BF00BF00BFC8
:101D980000BF00BF00BF00BF4C484FF4805105F0A2
:101DA80003FF00BF00BF00BF00BF00BF00BF00BFF0
:101DB80000BF00BF45484FF4006105F0F5FE00BFC5
:101DC80000BF00BF00BF00BF00BF00BF00BF00BF13
:101DD8003F48A62106F0A6F900BF00BF00BF00BF1C
:101DE80000BF00BF00BF00BF00BF00BF3848802150
:101DF80006F0A6F90346012BF8D000BF00BF00BFCC
:101E080000BF00BF00BF00BF00BF00BF2F484FF496
:101E1800805105F0BBFE00BF00BF00BF00BF00BF80
:101E280000BF00BF00BF00BF28484FF4805105F035
:101E3800BBFE00BF00BF00BF00BF00BF00BF00BFA8
:101E480000BF00BF21484FF4006105F0ADFE00BFA0
:101E580000BF00BF00BF00BF00BF00BF00BF00BF82
:101E68001B48A42106F05EF900BF00BF00BF00BFF9
:101E780000BF00BF00BF00BF00BF00BF14488021E3
:101E880006F05EF90346012BF8D000BF00BF00BF83
:101E980000BF00BF00BF00BF00BF00BF0B484FF42A
:101EA800805105F073FE00BF00BF00BF00BF00BF38
:101EB80000BF00BF00BF00BF04484FF4805105F0C9
:101EC80073FE00BF00BF00BF04E000BF0004024073
:101ED8000038004000BF00BF00BF00BF00BF00BF08
:101EE80094484FF4006105F05FFE00BF00BF00BFDB
:101EF80000BF00BF00BF00BF00BF00BF8E48A821C1
:101F080006F010F900BF00BF00BF00BF00BF00BF50
:101F180000BF00BF00BF00BF8748802106F010F94E
:101F28000346012BF8D000BF00BF00BF00BF00BFB1
:101F380000BF00BF00BF00BF7E484FF4805105F0CE
:101F480025FE00BF00BF00BF00BF00BF00BF00BF2D
:101F580000BF00BF77484FF4805105F025FE00BF51
:101F680000BF00BF00BF00BF00BF00BF00BF00BF71
:101F780070484FF4006105F017FE00BF00BF00BFB6
:101F880000BF00BF00BF00BF00BF00BF6A483F21BD
:101F980006F0C8F800BF00BF00BF00BF00BF00BF09
:101FA80000BF00BF00BF00BF6348802106F0C8F82B
:101FB8000346012BF8D000BF00BF00BF00BF00BF21
:101FC80000BF00BF00BF00BF5A484FF4805105F062
:101FD800DDFD00BF00BF00BF00BF00BF00BF00BFE6
:101FE80000BF00BF53484FF4805105F0DDFD00BF2E
:101FF80000BF00BF00BF00BF00BF00BF00BF00BFE1
:102008004C484FF4006105F0CFFD00BF00BF00BF92
:1020180000BF00BF00BF00BF00BF00BF4648D321BC
:1020280006F080F800BF00BF00BF00BF00BF00BFC0
:1020380000BF00BF00BF00BF3F48802106F080F806
:102048000346012BF8D000BF00BF00BF00BF00BF90
:1020580000BF00BF00BF00BF36484FF4805105F0F5
:1020680095FD00BF00BF00BF00BF00BF00BF00BF9D
:1020780000BF00BF2F484FF4805105F095FD00BF09
:1020880000BF00BF00BF00BF00BF00BF00BF00BF50
:1020980028484FF4006105F087FD00BF00BF00BF6E
:1020A80000BF00BF00BF00BF00BF00BF2248002123
:1020B80006F038F800BF00BF00BF00BF00BF00BF78
:1020C80000BF00BF00BF00BF1B48802106F038F8E2
:1020D8000346012BF8D000BF00BF00BF00BF00BF00
:1020E80000BF00BF00BF00BF12484FF4805105F089
:1020F8004DFD00BF00BF00BF00BF00BF00BF00BF55
:1021080000BF00BF0B484FF4805105F04DFD00BFE4
:1021180000BF00BF00BF00BF00BF00BF00BF00BFBF
:1021280004484FF4006105F03FFD00BF00BF00BF49
:1021380004E000BF000402400038004000BF00BFB8
:1021480000BF00BF00BF00BF8348D52105F0EAFFEC
:1021580000BF00BF00BF00BF00BF00BF00BF00BF7F
:1021680000BF00BF7C48802105F0EAFF0346012B31
:10217800F8D000BF00BF00BF00BF00BF00BF00BF56
:1021880000BF00BF75484FF4805105F0FFFC00BF49
:1021980000BF00BF00BF00BF00BF00BF00BF00BF3F
:1021A8006E484FF4805105F0FFFC00BF00BF00BF30
:1021B80000BF00BF00BF00BF00BF00BF67484FF4AB
:1021C800006105F0F1FC00BF00BF00BF00BF00BF09
:1021D80000BF00BF00BF00BF5F48802105F0A2FF1D
:1021E80000BF00BF00BF00BF00BF00BF00BF00BFEF
:1021F80000BF00BF5848802105F0A2FF0346012B0D
:10220800F8D000BF00BF00BF00BF00BF00BF00BFC5
:1022180000BF00BF51484FF4805105F0B7FC00BF24
:1022280000BF00BF00BF00BF00BF00BF00BF00BFAE
:102238004A484FF4805105F0B7FC00BF00BF00BF0B
:1022480000BF00BF00BF00BF00BF00BF43484FF43E
:10225800006105F0A9FC00BF00BF00BF00BF00BFC0
:1022680000BF00BF00BF00BF3B48D92105F05AFF9F
:1022780000BF00BF00BF00BF00BF00BF00BF00BF5E
:1022880000BF00BF3448802105F05AFF0346012BE8
:10229800F8D000BF00BF00BF00BF00BF00BF00BF35
:1022A80000BF00BF2D484FF4805105F06FFC00BF00
:1022B80000BF00BF00BF00BF00BF00BF00BF00BF1E
:1022C800FB79012B4CD125484FF4805105F06CFC6B
:1022D80000BF00BF00BF00BF00BF00BF00BF00BFFE
:1022E80000BF1E484FF4006105F05EFC00BF00BF50
:1022F80000BF00BF00BF00BF00BF00BF00BF16483F
:10230800222105F00FFF00BF00BF00BF00BF00BFC4
:1023180000BF00BF00BF00BF00BF0F48802105F00D
:102328000FFF0346012BF8D000BF00BF00BF00BF5E
:1023380000BF00BF00BF00BF00BF08484FF4805176
:1023480005F024FC00BF00BF00BF00BF00BF00BFF6
:1023580000BF00BF00BF4BE000380040000402404F
:1023680094484FF4805105F01FFC00BF00BF00BF28
:1023780000BF00BF00BF00BF00BF00BF8D484FF4C3
:10238800006105F011FC00BF00BF00BF00BF00BF27
:1023980000BF00BF00BF00BF8748F12105F0C2FEA3
:1023A80000BF00BF00BF00BF00BF00BF00BF00BF2D
:1023B80000BF00BF8048802105F0C2FE0346012B04
:1023C800F8D000BF00BF00BF00BF00BF00BF00BF04
:1023D80000BF00BF77484FF4805105F0D7FB00BF1E
:1023E80000BF00BF00BF00BF00BF00BF00BF00BFED
:1023F80070484FF4805105F0D7FB00BF00BF00BF05
:1024080000BF00BF00BF00BF00BF00BF69484FF456
:10241800006105F0C9FB00BF00BF00BF00BF00BFDF
:1024280000BF00BF00BF00BF6348DA2105F07AFE95
:1024380000BF00BF00BF00BF00BF00BF00BF00BF9C
:1024480000BF00BF5C48802105F07AFE0346012BDF
:10245800F8D000BF00BF00BF00BF00BF00BF00BF73
:1024680000BF00BF53484FF4805105F08FFB00BFF9
:1024780000BF00BF00BF00BF00BF00BF00BF00BF5C
:102488004C484FF4805105F08FFB00BF00BF00BFE0
:1024980000BF00BF00BF00BF00BF00BF45484FF4EA
:1024A800006105F081FB00BF00BF00BF00BF00BF97
:1024B80000BF00BF00BF00BF3F48122105F032FE39
:1024C80000BF00BF00BF00BF00BF00BF00BF00BF0C
:1024D80000BF00BF3848802105F032FE0346012BBB
:1024E800F8D000BF00BF00BF00BF00BF00BF00BFE3
:1024F80000BF00BF2F484FF4805105F047FB00BFD5
:1025080000BF00BF00BF00BF00BF00BF00BF00BFCB
:1025180028484FF4805105F047FB00BF00BF00BFBB
:1025280000BF00BF00BF00BF00BF00BF21484FF47D
:10253800006105F039FB00BF00BF00BF00BF00BF4E
:1025480000BF00BF00BF00BF1B48DB2105F0EAFD4C
:1025580000BF00BF00BF00BF00BF00BF00BF00BF7B
:1025680000BF00BF1448802105F0EAFD0346012B97
:10257800F8D000BF00BF00BF00BF00BF00BF00BF52
:1025880000BF00BF0B484FF4805105F0FFFA00BFB1
:1025980000BF00BF00BF00BF00BF00BF00BF00BF3B
:1025A80004484FF4805105F0FFFA00BF00BF00BF98
:1025B80004E000BF000402400038004000BF00BF34
:1025C80000BF00BF00BF00BF94484FF4006105F092
:1025D800EBFA00BF00BF00BF00BF00BF00BF00BFD5
:1025E80000BF00BF8E48402105F09CFD00BF00BF22
:1025F80000BF00BF00BF00BF00BF00BF00BF00BFDB
:102608008748802105F09CFD0346012BF8D000BFC8
:1026180000BF00BF00BF00BF00BF00BF00BF00BFBA
:102628007E484FF4805105F0B1FA00BF00BF00BFEB
:1026380000BF00BF00BF00BF00BF00BF77484FF416
:10264800805105F0B1FA00BF00BF00BF00BF00BF56
:1026580000BF00BF00BF00BF70484FF4006105F025
:10266800A3FA00BF00BF00BF00BF00BF00BF00BF8C
:1026780000BF00BF6A48202105F054FD00BF00BF1D
:1026880000BF00BF00BF00BF00BF00BF00BF00BF4A
:102698006348802105F054FD0346012BF8D000BFA4
:1026A80000BF00BF00BF00BF00BF00BF00BF00BF2A
:1026B8005A484FF4805105F069FA00BF00BF00BFC7
:1026C80000BF00BF00BF00BF00BF00BF53484FF4AA
:1026D800805105F069FA00BF00BF00BF00BF00BF0E
:1026E80000BF00BF00BF00BF4C484FF4006105F0B9
:1026F8005BFA00BF00BF00BF00BF00BF00BF00BF44
:1027080000BF00BF4648002105F00CFD00BF00BF18
:1027180000BF00BF00BF00BF00BF00BF00BF00BFB9
:102728003F48802105F00CFD0346012BF8D000BF7F
:1027380000BF00BF00BF00BF00BF00BF00BF00BF99
:1027480036484FF4805105F021FA00BF00BF00BFA2
:1027580000BF00BF00BF00BF00BF00BF2F484FF43D
:10276800805105F021FA00BF00BF00BF00BF00BFC5
:1027780000BF00BF00BF00BF28484FF4006105F04C
:1027880013FA00BF00BF00BF00BF00BF00BF00BFFB
:1027980000BF00BF2248A12105F0C4FC00BF00BF54
:1027A80000BF00BF00BF00BF00BF00BF00BF00BF29
:1027B8001B48802105F0C4FC0346012BF8D000BF5C
:1027C80000BF00BF00BF00BF00BF00BF00BF00BF09
:1027D80012484FF4805105F0D9F900BF00BF00BF7F
:1027E80000BF00BF00BF00BF00BF00BF0B484FF4D1
:1027F800805105F0D9F900BF00BF00BF00BF00BF7E
:1028080000BF00BF00BF00BF04484FF4006105F0DF
:10281800CBF900BF00BF00BF04E000BF00040240C6
:102828000038004000BF00BF00BF00BF00BF00BFAE
:102838005F48C82105F076FC00BF00BF00BF00BF9D
:1028480000BF00BF00BF00BF00BF00BF58488021C5
:1028580005F076FC0346012BF8D000BF00BF00BF8F
:1028680000BF00BF00BF00BF00BF00BF51484FF40A
:10287800805105F08BF900BF00BF00BF00BF00BF4B
:1028880000BF00BF00BF00BF4A484FF4805105F0A9
:102898008BF900BF00BF00BF00BF00BF00BF00BF73
:1028A80000BF00BF43484FF4006105F07DF900BF49
:1028B80000BF00BF00BF00BF00BF00BF00BF00BF18
:1028C8003B488D2105F02EFC00BF00BF00BF00BFB4
:1028D80000BF00BF00BF00BF00BF00BF3448802159
:1028E80005F02EFC0346012BF8D000BF00BF00BF47
:1028F80000BF00BF00BF00BF00BF00BF2D484FF49E
:10290800805105F043F900BF00BF00BF00BF00BF02
:1029180000BF00BF00BF00BFFB79012B4CD1254889
:102928004FF4805105F040F900BF00BF00BF00BF61
:1029380000BF00BF00BF00BF00BF1E484FF40061CA
:1029480005F032F900BF00BF00BF00BF00BF00BFE5
:1029580000BF00BF00BF1648102105F0E3FB00BF11
:1029680000BF00BF00BF00BF00BF00BF00BF00BF67
:1029780000BF0F48802105F0E3FB0346012BF8D088
:1029880000BF00BF00BF00BF00BF00BF00BF00BF47
:1029980000BF08484FF4805105F0F8F800BF00BFA9
:1029A80000BF00BF00BF00BF00BF00BF00BF4BE0BB
:1029B800003800400004024049484FF4805105F0B7
:1029C800F3F800BF00BF00BF00BF00BF00BF00BFDB
:1029D80000BF00BF42484FF4006105F0E5F800BFB2
:1029E80000BF00BF00BF00BF00BF00BF00BF00BFE7
:1029F8003C48142105F096FB00BF00BF00BF00BF94
:102A080000BF00BF00BF00BF00BF00BF3548802126
:102A180005F096FB0346012BF8D000BF00BF00BFAE
:102A280000BF00BF00BF00BF00BF00BF2C484FF46D
:102A3800805105F0ABF800BF00BF00BF00BF00BF6A
:102A480000BF00BF00BF00BF25484FF4805105F00C
:102A5800ABF800BF00BF00BF00BF00BF00BF00BF92
:102A680000BF00BF1E484FF4006105F09DF800BF8D
:102A780000BF00BF00BF00BF00BF00BF00BF00BF56
:102A88001848AF2105F04EFB00BF00BF00BF00BFD4
:102A980000BF00BF00BF00BF00BF00BF11488021BA
:102AA80005F04EFB0346012BF8D000BF00BF00BF66
:102AB80000BF00BF00BF00BF00BF00BF08484FF401
:102AC800805105F063F800BF00BF00BF00BF00BF22
:102AD80000BF00BF00BF00BF0837BD4680BD00BFB4
:102AE800000402400038004080B483B000AF0246C2
:102AF8000B46FA71BB71FB795BB2002B02DBBB7929
:102B08003F2B00D918E0F979BB79DB08DBB21A460C
:102B1800D2010A44F979DB010B440A49CB5CD9B2EA
:102B2800BB7903F00703012000FA03F3DBB20B4380
:102B3800DBB2D9B2034B99540C37BD465DF8047B20
:102B4800704700BFB0C9012080B483B000AF02460F
:102B58000B46FA71BB71FB795BB2002B02DBBB79C8
:102B68003F2B00D91AE0F979BB79DB08DBB21A46AA
:102B7800D2010A44F979DB010B440B49CB5CD9B289
:102B8800BB7903F00703012000FA03F3DBB2DB4350
:102B9800DBB20B40DBB2D9B2034B99540C37BD46BC
:102BA8005DF8047B704700BFB0C9012080B483B0D2
:102BB80000AF02460B46FA71BB71FB795BB2002B82
:102BC80002DBBB793F2B00D918E0F979BB79DB0828
:102BD800DBB21A46D2010A44F979DB010B440A49EF
:102BE800CB5CD9B2BB7903F00703012000FA03F3E9
:102BF800DBB24B40DBB2D9B2034B99540C37BD461C
:102C08005DF8047B704700BFB0C9012080B500AFF4
:102C1800034800214FF4806206F0F8FA80BD00BF37
:102C2800B0C9012080B582B000AF6D484FF4805123
:102C380004F0BAFF00BF00BF00BF00BF00BF00BF65
:102C480000BF00BF00BF66484FF4006104F0ACFF4E
:102C580000BF00BF00BF00BF00BF00BF00BF00BF74
:102C680000BF6048002105F05DFA00BF00BF00BF4B
:102C780000BF00BF00BF00BF00BF00BF00BF594872
:102C8800802105F05DFA0346012BF8D000BF00BF94
:102C980000BF00BF00BF00BF00BF00BF00BF50485B
:102CA8004FF4805104F072FF00BF00BF00BF00BFA7
:102CB80000BF00BF00BF00BF00BF49484FF48051AC
:102CC80004F072FF00BF00BF00BF00BF00BF00BF1D
:102CD80000BF00BF00BF42484FF4006104F064FF2A
:102CE80000BF00BF00BF00BF00BF00BF00BF00BFE4
:102CF80000BF3C48102105F015FA00BF00BF00BF17
:102D080000BF00BF00BF00BF00BF00BF00BF354805
:102D1800802105F015FA0346012BF8D000BF00BF4B
:102D280000BF00BF00BF00BF00BF00BF00BF2C48EE
:102D38004FF4805104F02AFF00BF00BF00BF00BF5E
:102D480000BF00BF00BF00BF00BF25484FF480513F
:102D580004F02AFF00BF00BF00BF00BF00BF00BFD4
:102D680000BF00BF00BF1E484FF4006104F01CFF05
:102D780000BF00BF00BF00BF00BF00BF00BF00BF53
:102D880000BF1848402105F0CDF900BF00BF00BFC3
:102D980000BF00BF00BF00BF00BF00BF00BF114899
:102DA800802105F0CDF90346012BF8D000BF00BF04
:102DB80000BF00BF00BF00BF00BF00BF00BF084882
:102DC8004FF4805104F0E2FE00BF00BF00BF00BF17
:102DD80000BF00BF00BF00BF00BF00237B6060E0F2
:102DE800000402400038004031484FF4805104F09C
:102DF800DBFE00BF00BF00BF00BF00BF00BF00BFB9
:102E080000BF00BF2A484FF4006104F0BFFE00BFB6
:102E180000BF00BF00BF00BF00BF00BF00BF00BFB2
:102E2800244A7B6813441B782348194605F07AF92D
:102E380000BF00BF00BF00BF00BF00BF00BF00BF92
:102E480000BF00BF1C48802105F07AF90346012B1A
:102E5800F8D000BF00BF00BF00BF00BF00BF00BF69
:102E680000BF00BF12484FF4006104F09DFE00BF90
:102E780000BF00BF00BF00BF00BF00BF00BF00BF52
:102E88000B484FF4805104F081FE00BF00BF00BF23
:102E980000BF00BF00BF00BF00BF00BF7B68013399
:102EA8007B607B68B3F5806F9ED30837BD4680BDD5
:102EB80000040240B0C901200038004090B587B036
:102EC80000AFF860B9607A603B600023FB7516E0DC
:102ED800FB7D3A681278013202FB03F31A46FB685D
:102EE8001A44FB7D79680B441B78DBB21046B9683D
:102EF8001A463B68FEF7E8FBFB7D0133FB75FC7D5A
:102F0800786806F009FA03469C42E1D31C37BD46AF
:102F180090BD00BF80B584B000AF7860F970BA701A
:102F28007B700023BB732DE00023FB7323E0FA7B47
:102F3800BB7BDB08DBB2797801FB03F313447A68C7
:102F480013441B781A46BB7B03F0070342FA03F3CA
:102F580003F00103002B0BD0FA78FB7B1344DAB2A1
:102F6800B978BB7B0B44DBB210461946FFF7BCFDB2
:102F7800FB7B0133FB73FA7B7B789A42D7D3BB7B0D
:102F88000133BB73BA7B3B7E9A42CDD31037BD4623
:102F980080BD00BF80B584B000AFF871B9717A7197
:102FA8003B71FB79FB6016E0BB79BB600AE0FB680C
:102FB800DAB2BB68DBB210461946FFF795FDBB686D
:102FC8000133BB60BA793B791A44BB689A42EEDC9C
:102FD800FB680133FB60FA797B791A44FB689A42F3
:102FE800E2DC1037BD4680BD80B584B000AFF87113
:102FF800B9717A713B71FB79FB6016E0BB79BB60F4
:103008000AE0FB68DAB2BB68DBB210461946FFF784
:10301800CDFDBB680133BB60BA793B791A44BB6804
:103028009A42EEDCFB680133FB60FA797B791A443B
:10303800FB689A42E2DC1037BD4680BD80B584B09B
:1030480000AFF871B9717A713B71FB79FB6016E0DA
:10305800BB79BB600AE0FB68DAB2BB68DBB210463A
:103068001946FFF771FDBB680133BB60BA793B793C
:103078001A44BB689A42EEDCFB680133FB60FA79BC
:103088007B791A44FB689A42E2DC1037BD4680BD62
:1030980080B584B000AFF871B9717A713B71FB7972
:1030A800FB6015E0FB68DAB2BB7910461946FFF7FA
:1030B8001BFDFB68DAB2B9793B790B44DBB2013B03
:1030C800DBB210461946FFF70FFDFB680133FB60C2
:1030D800FA797B791A44FB689A42E3DCBB79FB6096
:1030E80015E0FB68DBB2FA7910461946FFF7FCFCDD
:1030F800FA797B791344DBB2013BDAB2FB68DBB2C5
:1031080010461946FFF7F0FCFB680133FB60BA79FB
:103118003B791A44FB689A42E3DC1037BD4680BD10
:1031280080B586B000AFF871B9717A713B713A79A0
:10313800BB79D21A7979FB79CB1A9A42D4BF00238A
:103148000123DBB27B757B7D002B0BD0FB793B75B4
:10315800BB79FB713B7DBB717B79FB743B797B71E0
:10316800FB7C3B71FA797B799A420BD9FB79BB746A
:103178007B79FB71BB7C7B71BB797B743B79BB71C1
:103188007B7C3B717A79FB79D31A3B743A79BB79AA
:10319800D31AFB733B7C5B08DBB2FB75BA793B79CE
:1031A8009A4202D20123BB7527E0FF23BB7524E0B6
:1031B8007B7D002B06D0BA79FB7910461946FFF7BC
:1031C80093FC05E0FA79BB7910461946FFF78CFCA9
:1031D800FA7DFB7BD31ADBB2FB7597F91730002B0E
:1031E80008DABA7DBB791344BB71FA7D3B7C134482
:1031F800DBB2FB75FB790133FB71FA797B799A4273
:10320800D6D31837BD4680BD80B582B000AF13460F
:103218000246FA710A46BA717B71FA79BB7910468F
:10322800194668220823FFF733FF7B79002B02D168
:103238007B79642B0CD8FB790233D9B2BB79023382
:10324800DAB27B79084611461A460423FFF7A2FE34
:103258000837BD4680BD00BF80B582B000AF0220F0
:10326800012104F0F1FD01233B710023BB7103230D
:103278007B710223FB714FF480633B603B460B4834
:10328800194604F0DBFB4FF400633B603B460748FC
:10329800194604F0D3FB4FF480533B603B46034888
:1032A800194604F0CBFB0837BD4680BD0004024038
:1032B80080B588B000AF4FF48040012104F0E2FDF2
:1032C8000220012104F0C0FD23480D21052204F04D
:1032D80091FC21480F21052204F08CFC02233B7746
:1032E80002237B770023BB770223FB774FF400533D
:1032F800BB6107F118031848194604F09FFB4FF407
:103308000043BB6107F118031348194604F096FB04
:10331800124804F069FE0023BB8000233B8102238E
:103328007B810123BB814FF40073FB8100233B8227
:1033380000237B820723BB824FF48273FB803B1DF3
:103348000648194604F08AFE0448012104F0CAFE22
:103358002037BD4680BD00BF000402400038004051
:1033680080B584B002AF00F091FD00F097FD1748DA
:10337800002101F0DFFE0020FEF754FAFFF752FCAF
:10338800FFF744FC2E2300931148052101227F23D7
:10339800FFF7C0FDFFF746FC00237B600EE07B686B
:1033A800DBB20A2037211A46FFF72EFFFFF73AFC57
:1033B8000A2001F0CBFD7B6802337B607B68632BBE
:1033C800EDDD002318460837BD4680BDB0CD01208D
:1033D80054D4000880B582B000AF7860396078684E
:1033E800002101F025FE044B3A681A6000231846B4
:1033F8000837BD4680BD00BFB4CD012080B582B07E
:1034080000AF7860FFF70EFC002318460837BD466A
:1034180080BD00BF80B588B002AF7860FFF7F6FBCB
:10342800082300933B48782100220823FFF772FD08
:10343800394B1A6807F10E03104600211A4601F0AD
:10344800DFFF78617B69002B01D07B695DE0FB8938
:10345800B3F5877F02D24FF48773FB81FB89A3F50D
:103468008773642202FB03F32C4A82FB0312521176
:10347800DB17D31A3B613B69612B0ADDFFF7C6FBFB
:10348800082300932648782101220823FFF742FDEC
:103498003AE03B69592B06DD7920032106220423F3
:1034A800FFF778FD30E03B694A2B06DD79200321E0
:1034B80005220423FFF76EFD26E03B69312B06DD6C
:1034C8007920032104220423FFF764FD1CE03B69F3
:1034D8001D2B06DD7920032103220423FFF75AFD63
:1034E80012E03B690E2B06DD79200321022204231A
:1034F800FFF750FD08E03B69042B05DD7920032127
:1035080001220423FFF746FD002318461837BD465D
:1035180080BD00BF44D40008B4CD0120DB81B9765A
:103528004CD4000880B584B000AFF860B9607A6008
:103538003B60BA687B68104619463A68034BFFF748
:10354800BDFC002318461037BD4680BD78CE000864
:1035580080B584B000AFF860B9607A60FFF756FBB9
:103568000420022178223C23FFF792FDB86805F079
:10357800D3FE0346B8681946FDF736FE0346052014
:1035880003211A46184BFFF799FC052003217622E0
:103598000823FFF729FD062014217A68134BFFF74B
:1035A8008DFC06203521124A0F4BFFF787FCFFF7E9
:1035B80039FB00BF0F484FF4006104F0CDFA034611
:1035C800012BF7D000BF0B484FF4006104F0C4FA98
:1035D8000346002BF7D04FF4967001F0B7FC002398
:1035E80018461037BD4680BD70CE000878CE00085A
:1035F80048C800080008024080B582B000AF024603
:103608000B46FA71BB71BA79FB799A421DD917E05A
:10361800FB79013BDBB20020194680220A23FFF721
:10362800E3FCFB790020194680220A23FFF7DCFC23
:10363800FFF7F8FA022001F089FCFB790133FB71EE
:10364800FA79BB799A42E3D91CE017E0FB79013398
:10365800DBB20020194680220A23FFF7C5FCFB795C
:103668000020194680220A23FFF7BEFCFFF7DAFA8A
:10367800022001F06BFCFB79013BFB71FA79BB7905
:103688009A42E3D20837BD4680BD00BFB0B5BAB094
:1036980000AFF860B9607A60FB700023C7F8E030CB
:1036A800BB68002B02D140F601534AE2BB68C7F859
:1036B800E430D7F8E4301433C7F8E43009E0D7F839
:1036C800E0300133C7F8E030D7F8E4301433C7F8F6
:1036D800E430D7F8E4301B68002BF0D1D7F8E0309D
:1036E800052B02D90523C7F8E030BB68C7F8E430DA
:1036F800F868FFF78FFED7F8E4301B680020002138
:103708001A46894BFFF7DAFB00200A2180220A2398
:10371800FFF706FDD7F8E4301433C7F8E4300F2379
:10372800C7F8DC300023C7F8D830CEE0D7F8D82067
:1037380013469B0013449B00D7F8E42013441B68EE
:103748001B785BB25B2B40F0A58007F11001D7F81E
:10375800D82013469B001344DB00CD18D7F8D82097
:1037680013469B0013449B00D7F8E42013441B68BE
:10377800DC1CD7F8D82013469B0013449B00D7F8CD
:10378800E42013441B68184605F0C6FD0346023BB7
:10379800284621461A46FDF797F9D7F8D820134648
:1037A8009B0013449B00D7F8E42013441B680133A3
:1037B8001B785BB2622B02D06C2B33D059E0D7F860
:1037C800D82013469B0013449B00D7F8E4201344E9
:1037D8009B681B78012B11D107F11001D7F8D8206D
:1037E80013469B001344DB00CC18204605F094FDDB
:1037F800034623444D4A106818603AE007F1100167
:10380800D7F8D82013469B001344DB00CC18204679
:1038180005F082FD03462344454A118892781980B1
:103828009A7026E007F11001D7F8D82013469B00BC
:103838001344DB000B44184605F06EFD07F1100138
:10384800D7F8D82013469B001344DB0003441944DF
:10385800D7F8D82013469B0013449B00D7F8E420E0
:1038680013449B681B68084632491A4605F02EFD2A
:1038780000BFD7F8DC1007F11000D7F8D82013469E
:103888009B001344DB00034401201A462A4BFFF730
:1038980015FB10E0D7F8DC10D7F8D82013469B00AA
:1038A80013449B00D7F8E42013441B6801201A46F0
:1038B800214BFFF703FBD7F8DC300A33C7F8DC30BD
:1038C800D7F8D8300133C7F8D830D7F8D820D7F888
:1038D800E0309A42FFF42AAF00200E2180220A230A
:1038E800FFF782FBFFF79EF90E23C7F8DC307B68F1
:1038F80001221A6011484FF4807104F02DF9034633
:10390800002B1DD100BF0D484FF4807104F024F93D
:103918000346002BF7D04FF4967001F017FB7B6835
:1039280000221A6000230CE170CE000864C8000869
:1039380068C800086CC8000878CE00080008024073
:1039480082484FF4806104F007F90346002B2AD11E
:103958007B681B681A46D7F8E0309A4223D2D7F81A
:10396800DC30DBB20133DAB2D7F8DC30DBB20A3351
:10397800DBB210461946FFF73FFED7F8DC300A33B2
:10398800C7F8DC30724B1B6818464FF47A610A227C
:1039980001F00CFC4FF4967001F0D8FA7B681B68B4
:1039A8005A1C7B681A6069484FF4007104F0D4F817
:1039B8000346002B27D17B681B68012B23DDD7F832
:1039C800DC30DBB2013BDAB2D7F8DC30DBB20A3BE1
:1039D800DBB210461946FFF70FFED7F8DC300A3B7A
:1039E800C7F8DC305A4B1B6818464FF47A610A2234
:1039F80001F0DCFB4FF4967001F0A8FA7B681B68B5
:103A08005A1E7B681A6051484FF4006104F0A4F80C
:103A18000346002B40F0948000BF4C484FF40061EF
:103A280004F09AF80346002BF7D04FF4967001F093
:103A38008DFA7B681B681A4613469B0013449B004B
:103A4800143BD7F8E42013445B68002B0DD07B6847
:103A58001B681A4613469B0013449B00143BD7F877
:103A6800E42013445B68984763E07B681B681A4648
:103A780013469B0013449B00143BD7F8E4201344DF
:103A88009B68002B55D07B681B681A4613469B0021
:103A980013449B00143BD7F8E42013441B680133FC
:103AA8001B785BB2622B02D06C2B1BD041E07B6889
:103AB8001B685A1E07F1100113469B001344DB00D4
:103AC80019447B681B681A4613469B0013449B00E5
:103AD800143BD7F8E42013449B68F8681A4600F0B2
:103AE80039F826E07B681B685A1E07F11001134657
:103AF8009B001344DB0019447B681B681A46134675
:103B08009B0013449B00143BD7F8E42013449C68A3
:103B18007B681B681A4613469B0013449B00143BA2
:103B2800D7F8E4201344DB68F868224600F0D8F898
:103B380000BFFB78012B01D1002302E000BFD4E5D0
:103B4800D8E61846E837BD46B0BD00BF00080240B9
:103B5800B0CD012080B586B000AFF860B9607A605A
:103B68007B681B78FB75F868FFF754FCB86805F0AC
:103B7800D3FB0346B8681946FDF736FB0346002019
:103B880000211A464F4BFFF799F900200A2180229D
:103B98000A23FFF7C5FAFB7D012B02D14A4B3B6193
:103BA80008E007F11003494A1268114619800233E8
:103BB800120C1A7007F1100300201C211A46444BFE
:103BC800FFF77CF900203221424A3E4BFFF776F995
:103BD80000203921404A3B4BFFF770F9FFF722F8E4
:103BE8003E484FF4807103F0B7FF0346002B0DD118
:103BF80000BF3A484FF4807103F0AEFF0346002B34
:103C0800F7D04FF4967001F0A1F956E033484FF41D
:103C1800007103F0A1FF0346002B07D02F484FF493
:103C2800806103F099FF0346002B27D1FB7D012B10
:103C38000BD10023FB7507F11003244A12681146C3
:103C480019800233120C1A7003E00123FB751E4B16
:103C58003B6100201C21A4220823FFF7EFF907F19C
:103C6800100300201C211A46194BFFF727F9FEF70D
:103C7800D9FF4FF4967001F069F91DE017484FF429
:103C8800006103F069FF0346002B15D100BF1348FC
:103C98004FF4006103F060FF0346002BF7D04FF4A8
:103CA800967001F053F97B68FA7D1A70F868FFF78F
:103CB800B1FBFEF7B7FF00E092E70023184618377C
:103CC800BD4680BD70CE00085945530068C800083D
:103CD80080CE000848C8000870C8000800080240E4
:103CE80080B590B000AFF860B9607A603B607B68DF
:103CF8001B68FB63F868FFF78DFBB86805F00CFBE1
:103D08000346B8681946FDF76FFA034600200021FC
:103D18001A46584BFFF7D2F800200A2180220A23BE
:103D2800FFF7FEF9FB6B07F11402104652491A46D9
:103D380005F0CCFA07F1140300201C211A464F4B5A
:103D4800FFF7BCF8002032214D4A4A4BFFF7B6F87E
:103D5800002039214B4A474BFFF7B0F8FEF762FFC6
:103D680049484FF4807103F0F7FE0346002B0DD14C
:103D780000BF45484FF4807103F0EEFE0346002B68
:103D8800F7D04FF4967001F0E1F86EE03E484FF43A
:103D9800007103F0E1FE0346002B1FD13B68FA6B6C
:103DA8001344FB6300201C21A4220823FFF746F9D3
:103DB800FB6B07F1140210462F491A4605F086FAE4
:103DC80007F1140300201C211A462C4BFFF776F844
:103DD800FEF728FF642001F0B9F845E02A484FF4BF
:103DE800806103F0B9FE0346002B1FD13B68FA6BD4
:103DF800D31AFB6300201C21A4220823FFF71EF915
:103E0800FB6B07F1140210461B491A4605F05EFACF
:103E180007F1140300201C211A46184BFFF74EF82F
:103E2800FEF700FF642001F091F81DE016484FF4FA
:103E3800006103F091FE0346002B15D100BF124824
:103E48004FF4006103F088FE0346002BF7D04FF4CF
:103E5800967001F07BF87B68FA6B1A60F868FFF7D8
:103E6800D9FAFEF7DFFE00E07AE70023184640376C
:103E7800BD4680BD70CE00086CC8000880CE000822
:103E880048C8000870C800080008024080B500AFA4
:103E98000420012103F0D8FF80BD00BF80B582B0A7
:103EA80000AF02237B7100233B710123FB714FF4A8
:103EB8007C533B603B460348194603F0BFFD083777
:103EC800BD4680BD0008024080B500AF074800210C
:103ED800502205F09BF900F093FA00F09DFA00F0EB
:103EE800E9FA00F021F90023184680BDB8CD012079
:103EF80080B58AB000AF78603960794B1B78012BA8
:103F080002D940F60143E7E007F10803184604F038
:103F1800F9FA41F657333B627723BB830023BB840E
:103F28000023FB8330233B8101237B810223BB8257
:103F38006B4B1B78002B02D0012B3AD072E0684BF8
:103F48001B781A46674913469B001344DB000B4451
:103F58004FF080421A60624B1B781A46604B197802
:103F6800604813469B001344DB0003440A461A7159
:103F78005B4B1B781A465B4913469B001344DB00D6
:103F88000B441A6807F11C031046194604F0F4F8AC
:103F9800534B1B781A46534913469B001344DB00C6
:103FA8000B441A6807F108031046194604F09CF9F7
:103FB8003BE04B4B1B781A464A4913469B00134477
:103FC800DB000B44484A1A60454B1B781A46444BA1
:103FD8001978444813469B001344DB0003440A46FF
:103FE8001A713F4B1B781A463E4913469B001344EF
:103FF800DB000B441A6807F11C031046194604F04D
:10400800BBF8374B1B781A46364913469B001344B6
:10401800DB000B441A6807F108031046194604F040
:1040280063F902E040F6024356E02D4B1B781A462E
:104038002C4913469B001344DB000B440833012230
:104048001A71274B1B781A4613469B001344DB0052
:10405800244A1A447B681A60214B1B781A46214966
:1040680013469B001344DB000B441B6818460121D0
:1040780004F0FAF81A4B1B781A461C4B9B68194631
:10408800184813469B001344DB0003441833196097
:10409800134B1B781A46134913469B001344DB0045
:1040A8000B441B681846012104F0FEF80C4B1B78E2
:1040B8001A460C4913469B001344DB000B441B684B
:1040C80018460421012204F05BFA054B1B780133E2
:1040D800DAB2034B1A70002318462837BD4680BD54
:1040E80008CE0120B8CD012000040040ACCE01204C
:1040F80080B500AF09484FF48071002203F062FDDB
:104108000748002100F04AF80648002100F046F868
:1041180000F01AF80023184680BD00BF00000240D6
:10412800B8CD0120E0CD012080B500AF05484FF49F
:104138008071012203F046FD00F014F800231846B0
:1041480080BD00BF0000024080B500AF04480421D4
:1041580003F01CFD0248082103F018FD80BD00BFD4
:104168000000024080B500AF0448042103F01CFDA4
:104178000248082103F018FD80BD00BF000002407E
:1041880080B485B000AF78607B68FB60FB681B6912
:1041980018461437BD465DF8047B704780B485B077
:1041A80000AF786039600023FB817B68BB603B68A7
:1041B800002B0DDCBB681B68BA681268128892B2C3
:1041C80022F0010292B21A80BB6800221A6122E032
:1041D8003A68184B9A4206DD4FF6FF73FB81BB68BD
:1041E800144A1A6117E0BB681B69002B09D1BB6828
:1041F8001B68BA681268128892B242F0010292B241
:104208001A800C4A3B6892FBF3F39BB2013BFB819B
:10421800BB683A681A61FB89002B03D0BB681B682E
:10422800FA89DA62002318461437BD465DF8047B24
:10423800704700BF3057050080B582B000AF034615
:10424800FB71FB79082B56D801A252F823F000BF66
:104258007D42000897420008B1420008FF4200086A
:10426800CB420008FF420008FF420008FF42000856
:10427800E54200082448202103F096FC224840210A
:1042880003F092FC2048802103F08EFC36E01E48A3
:10429800202103F07BFC1C48402103F085FC1A48D0
:1042A800802103F081FC29E01748202103F07CFCE1
:1042B8001548402103F06AFC1348802103F074FC80
:1042C8001CE01148202103F061FC0F48402103F055
:1042D8005DFC0D48802103F067FC0FE00A482021AF
:1042E80003F054FC0848402103F050FC06488021A4
:1042F80003F04CFC02E040F6014300E000231846BE
:104308000837BD4680BD00BF0004024080B584B0B8
:1043180000AF78600B46FB707B68FB60FB681B791D
:10432800002B02D0012B07D00DE0FB780B48202191
:104338001A4603F047FC09E0FB78084840211A4672
:1043480003F040FC02E040F6014303E0FB68FA7822
:104358001A73002318461037BD4680BD000002407E
:1043680080B485B000AF78607B68FB60FB689B68B1
:1043780018461437BD465DF8047B704780B485B095
:1043880000AF786039607B68FB60FB683A689A61C7
:10439800002318461437BD465DF8047B704700BFFC
:1043A80080B584B000AF78607B68FB60FB681B69F0
:1043B800002B03D178683221FFF7F0FEFB68022258
:1043C8001A751037BD4680BD80B485B000AF7860DF
:1043D8007B68FB60FB6803221A751437BD465DF8DD
:1043E800047B704780B485B000AF78607B68FB6061
:1043F800FB6801221A751437BD465DF8047B7047C7
:1044080080B500AF0320012103F01EFD0320012128
:1044180003F038FD80BD00BF80B582B000AF2348EF
:104428000121012203F0E6FB20480721022203F0C4
:10443800E1FB82233B6002233B710023BB71022313
:104448007B713B461948194603F0F8FA4FF4B673E6
:104458003B6001233B710023BB7102237B713B4608
:104468001248194603F0EAFA02237B7101233B71D3
:104478000023BB71E0233B603B460D48194603F01F
:10448800DDFA0A482021012203F09CFB074840215D
:10449800012203F097FB0548042103F077FB03484A
:1044A800082103F073FB0837BD4680BD00000240B9
:1044B8000004024080B582B000AF1C233B71052385
:1044C8007B710123BB710123FB713B1D184602F070
:1044D800CBFE1D233B7105237B710223BB713B1D62
:1044E800184602F0C1FE0837BD4680BD0000000036
:1044F8002DE9B04300AF4FF080431B8A9BB203F015
:104508000403002B00D17CE04FF080434FF6FB7290
:104518001A823F4B9B685A1C3D4B9A603C4B1B7D53
:10452800DBB25BB2032B12D0052B20D0022B00D0BC
:1045380067E0374B1A69374B9A4207DC344B1A69E4
:10454800334B9B691A44324B1A6151E050E0304BAF
:104558001B691A46304B1B689A4207D92C4B1A69BB
:104568002B4B9B69D21A2A4B1A6141E040E0284B39
:104578009B6B1846FBF780FF04460D46244BD3E996
:10458800082310461946FBF72BFE02460B46104639
:1045980019461DA3D3E90023FBF720FE02460B466C
:1045A800904699461A4BD3E9082310461946FBF75B
:1045B80017FE02460B461046194613A3D3E90023FB
:1045C800FBF70EFE02460B4640464946FCF7E4F868
:1045D80002460B4620462946FBF7B4FF02460B4627
:1045E80010461946FCF748FA0246094B1A6100BF03
:1045F800074B1B68064A1269084991FBF2F2013A17
:10460800DA62BDE8B08300BF0000000000E054405B
:10461800B8CD01209F860100ACCE0120305705009F
:104628002DE9B04300AF464B1B8A9BB203F004034D
:10463800002B00D17CE0424B4FF6FB721A82414BB3
:104648001B6B5A1C3F4B1A633E4B93F83C30DBB252
:104658005BB2032B12D0042B20D0022B00D067E0D2
:10466800384B9A6B384B9A4207DC364B9A6B354B72
:104678001B6C1A44334B9A6351E050E0314B9B6BEF
:104688001A46324B1B689A4207D92E4B9A6B2D4B10
:104698001B6CD21A2B4B9A6341E040E0294B1B69F3
:1046A8001846FBF7E9FE04460D46264BD3E91223CC
:1046B80010461946FBF794FD02460B46104619466C
:1046C8001DA3D3E90023FBF789FD02460B4690465C
:1046D80099461C4BD3E9122310461946FBF780FD77
:1046E80002460B461046194613A3D3E90023FBF7ED
:1046F80077FD02460B4640464946FCF74DF8024610
:104708000B4620462946FBF71DFF02460B4610467E
:104718001946FCF7B1F902460A4B9A6300BF094BE8
:104728009B6A084A926B0A4991FBF2F2013ADA62F3
:10473800BDE8B083AFF300800000000000E0544003
:1047480000040040B8CD01209F860100ACCE0120B6
:1047580030570500AFF3008080B500AF0348002153
:10476800302204F053FD0023184680BD0CCE0120F2
:1047780080B58CB002AFF860B9607A60BB687B61C5
:10478800FB68002B02D140F6033386E07B691B7877
:10479800002B02D0012B23D044E0424B7B624FF424
:1047A80000733B840923BB834FF480637B840A2313
:1047B800FB833D4BBB61BB693C4A1A61BB691B7DEE
:1047C800012B04D1FB68BA691A60002365E0102048
:1047D800012103F075FB0120012103F035FB24E0E2
:1047E800334B7B6204233B840223BB8308237B84F3
:1047F8000323FB832F4BBB61BB692F4A1A61BB693B
:104808001B7D012B04D1FB68BA691A60002344E0C0
:104818004FF40030012103F035FB0120012103F0A2
:1048280013FB02E040F6033337E0798C3A8CFB8BBC
:10483800B88B0090786A00F041F8BB6901221A75BC
:10484800BB6900229A80BB690022DA80BB6900221A
:104858001A81BB690C225A81BB6900229A81BB6903
:104868007A681A60BB691A69BB691046194603F071
:10487800D7FEBB691B691846012103F08BFF00BFF7
:10488800BB691B691846102103F0A4FF0346002BDF
:10489800F6D1FB68BA691A60002318462837BD4666
:1048A80080BD00BF000002400CCE01200010014076
:1048B8000004024024CE01200044004080B586B0A8
:1048C80000AFF86079813A81FB803B8CF868194623
:1048D800072203F08FF93B8CF8681946072203F08A
:1048E80089F9FB88F8681946072203F083F9FB88E1
:1048F800F8681946072203F07DF93B893B610223DA
:104908003B750023BB7502237B7507F11003F8681C
:10491800194603F093F87B893B6100233B7501231B
:10492800BB7507F11003F868194603F087F81837C4
:10493800BD4680BD80B584B000AF14480021012277
:1049480004F064FC00F096F800F0A4F800F080F899
:104958002723BB6042F60313BB800023BB810023DF
:10496800FB800023BB733B1D0948194603F004FC78
:1049780007480121012203F003FE0548012103F045
:1049880093FC002318461037BD4680BDE0CE0120B9
:104998000010004080B483B000AF786039607B6855
:1049A800044A1A60002318460C37BD465DF8047B9C
:1049B800704700BFE0CE012080B485B000AF7860BA
:1049C8007B68FB60FB681B78DBB218461437BD4672
:1049D8005DF8047B704700BF80B588B000AF786091
:1049E8000023FB617B68BB611848022103F0CEF805
:1049F800022000F0ABFA0223FB6000233B74022381
:104A08007B7407F10C031148194603F017F80F4897
:104A1800022103F0A1F80346FB75FB690133FB6132
:104A2800FB7D002BF3D10223FB6001233B740023A1
:104A3800BB7402237B7407F10C030448194602F087
:104A4800FDFFFB6918462037BD4680BD00040240C3
:104A580080B582B000AF36233B7102237B710123FE
:104A6800BB710123FB713B1D184602F0FDFB0837A3
:104A7800BD4680BD80B500AF0220012103F0E4F9F6
:104A88000420012103F0E0F91020012103F0FAF9D4
:104A980080BD00BF80B582B000AF3F233B600023DC
:104AA8003B7102237B713B460D48194602F0C6FF55
:104AB800C0233B6001233B710023BB7102237B7140
:104AC8003B460748194602F0B9FF03233B603B46C3
:104AD8000448194602F0B2FF0837BD4680BD00BF42
:104AE800000802400004024080B400AF2A4B1B8A31
:104AF8009BB203F00103002B00D148E0264B4FF690
:104B0800FE721A82254B1B78012B1BD1244B1B7874
:104B1800DBB223F01603DAB2214B1A70204B1B7854
:104B2800DAB2204B1B69DBB203F01603DBB2134386
:104B3800DAB21B4B1A701B4B40225A83194B802246
:104B48001A831AE0164B1B78DBB223F02903DAB27A
:104B5800134B1A70124B1B78DAB2124B1B69DBB27B
:104B680003F02903DBB21343DAB20D4B1A700D4B75
:104B780080225A830B4B40221A83084B1B78002B48
:104B880014BF00230123DBB21A46044B1A70BD463A
:104B98005DF8047B704700BF001000400000002053
:104BA800E0CE01200008024080B500AF084800218F
:104BB800182204F02BFB00F0E1F800F0E7F800F011
:104BC80009F8034B03225A610023184680BD00BF31
:104BD8003CCE012080B584B000AF0723BB6040F213
:104BE8001F53BB800023BB810023FB800023BB73C2
:104BF8003B1D0D48194603F0BFFA0B48012103F08D
:104C080033FB09480121012203F0BAFC06480121BF
:104C180003F0F6FC0448012103F046FB0023184684
:104C28001037BD4680BD00BF000C004080B400AF07
:104C3800034B1B681846BD465DF8047B704700BFF0
:104C48003CCE012080B400AF034B5B681846BD46DC
:104C58005DF8047B704700BF3CCE012080B483B070
:104C680000AF7860044B7A681A60002318460C3746
:104C7800BD465DF8047B70473CCE012080B483B00C
:104C880000AF7860044B7A685A60002318460C37E6
:104C9800BD465DF8047B70473CCE012080B400AF70
:104CA800034B9B681846BD465DF8047B704700BF00
:104CB8003CCE012080B400AF034BDB681846BD46EC
:104CC8005DF8047B704700BF3CCE012080B483B000
:104CD80000AF7860044B7A689A60002318460C3756
:104CE800BD465DF8047B70473CCE012080B483B09C
:104CF80000AF7860044B7A68DA60002318460C37F6
:104D0800BD465DF8047B70473CCE012080B400AFFF
:104D1800034B1B691846BD465DF8047B704700BF0E
:104D28003CCE012080B483B000AF7860044B7A6831
:104D38001A61002318460C37BD465DF8047B70479E
:104D48003CCE012080B400AF034B5B691846BD46DA
:104D58005DF8047B704700BF3CCE012080B483B06F
:104D680000AF7860044B7A685A61002318460C3704
:104D7800BD465DF8047B70473CCE012080B500AF8E
:104D88000820012103F07EF880BD00BF80B582B005
:104D980000AF32233B7103237B710123BB710123D5
:104DA800FB713B1D184602F05FFA0837BD4680BD0F
:104DB80080B500AF1848012103F006FC0346002B1C
:104DC80000D128E01448012103F01AFC134B1B6999
:104DD800022B11D0032B1DD0012B1CD10F4B1B68AC
:104DE8001A460F4BDB699A4205D20C4B1B685A1CBA
:104DF8000A4B1A600FE00EE0084B5B681A46084B36
:104E0800DB699A4205D2054B5B685A1C034B5A6012
:104E180001E000E000BF80BD000C00403CCE012056
:104E2800ACCE012080B483B000AF03463960FB717B
:104E380097F90730002B0BDA0D49FB7903F00F03C4
:104E4800043B3A68D2B21201D2B20B441A7609E096
:104E5800084997F907303A68D2B21201D2B20B4426
:104E680083F800230C37BD465DF8047B704700BF0C
:104E780000ED00E000E100E080B582B000AF7860AE
:104E88007B68B3F1807F01D3012311E00A4B7A6874
:104E980022F07F42013A5A604FF0FF300F21FFF7AE
:104EA800C1FF054B00229A60034B07221A600023BA
:104EB80018460837BD4680BD10E000E080B582B0D6
:104EC80000AF184B00225A6003F0DAFC012002F010
:104ED800D7FE00BF02F0E6FE0346002BFAD0124BC5
:104EE8001A68124BA3FB02139B091846FFF7C4FF6D
:104EF800FFF732FC78607B68002B01D07B680CE000
:104F080008480B494FF4E132FFF732FC78607B68C0
:104F1800002B01D07B6800E0002318460837BD4607
:104F280080BD00BF54CE012014000020D34D621074
:104F38000010014080B400AF034B5B681846BD46C3
:104F48005DF8047B704700BF54CE012080B485B063
:104F580000AF7860094B5B68FB60FA687B681344B4
:104F6800BB6000BF054B5A68BB689A42FAD1002360
:104F780018461437BD465DF8047B704754CE0120AF
:104F880080B400AF044B5B685A1C034B5A60BD46A3
:104F98005DF8047B704700BF54CE012080B400AF99
:104FA80000231846BD465DF8047B704780B483B083
:104FB80000AF786039607B68044A1A60002318469D
:104FC8000C37BD465DF8047B704700BF0100002028
:104FD80080B586B000AFF860B9607A603B60BB68A6
:104FE8007B617B683B6102F085FC7A693B691B78D1
:104FF8001046194602F0A2FC7B6901337B613B69CC
:1050080001333B613B685A1E3A60002BEDD102F038
:1050180087FC002318461837BD4680BD80B500AF11
:1050280000F03EF800F044F80023184680BD00BFA9
:1050380080B483B000AF786039607B68044A1A6036
:10504800002318460C37BD465DF8047B704700BF47
:10505800D8CE012080B582B000AF786013460A46EA
:10506800FA70BB70FB78022B02D0042B08D00FE03B
:10507800BB780A484FF400611A4602F0A3FD07E026
:10508800BB7806484FF480511A4602F09BFD00BFDA
:10509800002318460837BD4680BD00BF0000024007
:1050A80080B500AF0120012102F0CEFE80BD00BF17
:1050B80080B582B000AF4FF4C0533B6001233B7111
:1050C8000023BB7102237B713B460348194602F05B
:1050D800B5FC0837BD4680BD0000024080B584B0ED
:1050E80000AF124B1B7A012B01D1002319E00F48A6
:1050F80000210C2204F08AF800F0CEF800F0D8F86D
:105108000723BB6040F24713BB800023BB81002309
:10511800FB800023BB733B1D0548194603F02CF8A0
:10512800002318461037BD4680BD00BF5CCE012065
:105138000008004080B588B000AF78603960184B2F
:105148001B7A002B24D13023BB810123FB81002350
:105158007B6102233B8307F10C031248194603F0D5
:105168004BF91048082103F0EFF90E48012103F02C
:105178007BF80B4B01221A720A4B0A4A128C92B224
:1051880022F4807292B21A84074B012283F82220FB
:105198007B68034A1A60002318462037BD4680BD45
:1051A8005CCE012000080040ACCE012080B586B05E
:1051B80000AFF860B9607A600023FB82344B93F843
:1051C8002230002B01D100235DE0FB68002B02D1C7
:1051D80040F2012357E0FB683B61BB68002B0FDC02
:1051E8002C4B2C4A128C92B222F4807292B21A84FE
:1051F8002848002103F058F83B6900225A601DE056
:10520800BB68B3F5FA3F06DD4FF6FF73FB823B69D7
:10521800BA685A6012E03B695B68002B03D11D48ED
:10522800012103F041F84FF4FA32BB6892FBF3F323
:105238009BB2013BFB823B69BA685A60FB8A002B30
:1052480004D0FB8A1348194603F000F8114B114AA1
:10525800128C92B242F4807292B21A840D480121E3
:1052680003F022F87B681846FFF770FE0948002112
:1052780003F01AF8074B074A128C92B222F4807294
:1052880092B21A84002318461837BD4680BD00BF65
:10529800ACCE01200008004080B500AF04200121F9
:1052A80002F0F0FD0220012102F0CEFD80BD00BF1A
:1052B80080B582B000AF0B480821022202F09AFCA8
:1052C8004FF480733B6002233B710023BB710023C2
:1052D8007B713B460348194602F0B0FB0837BD46D0
:1052E80080BD00BF0004024080B500AF0548002122
:1052F800022203F08BFF00F0B7F800F0A7F80023B4
:10530800184680BDE4CE012080B59CB000AF78601F
:105318003960374802F0AAF90023FB60354B3B613E
:10532800354B7B610023BB610123FB6100233B629A
:1053380000237B624FF40063BB624FF40053FB62AF
:105348004FF480733B634FF400337B630023BB63EC
:105358000123FB6300233B6400237B6407F10C03F8
:105368002348194602F054FA2148012102F0A6FA0E
:105378000023BB640023FB6400233B654FF4706388
:105388007B6507F14803184602F020F80023BB6547
:10539800002387F85C30012387F85D3000233B66E3
:1053A8000023BB66012387F86C3007F158031348C4
:1053B800194601F0B7FF1148012102F01FF90F4803
:1053C80004210122072302F045F80C48012102F0CC
:1053D80031F90A48012102F021F8084802F0FEF8E4
:1053E8007B68054A1A60002318467037BD4680BDA1
:1053F800106402404C200140E4CE0120002001400E
:1054080080B487B000AFF8600B467A60FB72FB6827
:10541800002B02D14FF4817312E0FB7A002B02D0EB
:1054280040F201130CE0FB687B61FB7A5B007A6950
:1054380013441B88C3F30B039AB27B681A800023BA
:1054480018461C37BD465DF8047B704780B500AF31
:105458000448012102F0F8FC4FF48070012102F0A9
:105468002FFD80BD0100400080B582B000AF102341
:105478003B6003233B710023FB713B4603481946FD
:1054880002F0DCFA0837BD4680BD00BF00000240CC
:1054980080B582B000AF18480021FEF729FD78607A
:1054A8007B68002B01D07B6821E014480021FEF7BF
:1054B8001FFD78607B68002B01D07B6817E0FEF742
:1054C80033FE0820FEF7B8FE78607B68002B01D019
:1054D8007B680CE0084B1B6818460121FEF716FF95
:1054E800054B5B6818460121FEF710FF002318469C
:1054F8000837BD4680BD00BF68CE01206CCE0120B4
:1055080080B586B000AF786013460A46FA70BB7063
:105518000023FB730023BB7300237B7301233B73BE
:105528007B68002B01D100230EE17B68002B0FDA8A
:105538008B4B1B6818460021FEF7E8FE884B5B681A
:1055480018460021FEF7E2FE7B685B427B600BE0B9
:10555800834B1B6818460121FEF7D8FE804B5B6819
:1055680018460121FEF7D2FE7D4B1A687D4B9B68D9
:1055780010461946FEF702FF794B5A68794B9B682B
:1055880010461946FEF7FAFE7868FAF775FF0246E4
:105598000B46104619466EA3D3E90023FAF7D2FF4B
:1055A80002460B4643EC172BB0EE470AF0EE670AAB
:1055B80003F00AFB03465B007B61BB7803F0010341
:1055C800002B14BF00230123DBB2FB73BB7803F06D
:1055D8000203002B14BF00230123DBB2BB737A69DB
:1055E800604B5B685B009A4294BF00230123DBB2E7
:1055F8007B737B7B012B5FD1FB7B012B19D1594B33
:105608005B681946FA783B7B084611461A469FEDB7
:10561800520B00F005FB38613B69022B00F08E80CD
:105628003B69012B00F08A807A694E4B5B68D31A7C
:105638007B61BB7B012B34D17A694A4B5B68D31AF7
:105648007B61FA783B7B786911461A469FED420BDD
:1056580000F04EFD38613B69022B6FD03B69012B8E
:105668006CD0404B5B681946FA783B7B084611467C
:105678001A469FED390B00F033FC38613B69022B69
:105688005CD03B69012B59D0354B1B68184600216B
:10569800FEF784FD324B5B6818460021FEF77EFD5D
:1056A8004CE0FA783B7B786911461A469FED2A0B45
:1056B80000F01EFD386141E0FB7B012B14D17B69B2
:1056C800DA0F13445B107B61FA783B7B78691146EB
:1056D8001A469FED210B00F0A3FA38613B69022BB3
:1056E8002CD03B69012B29D0BB7B012B1CD1FA782C
:1056F8003B7B786911461A469FED170B00F0F0FBCB
:1057080038613B69022B19D03B69012B16D0144B29
:105718001B6818460021FEF741FD114B5B681846CF
:105728000021FEF73BFD09E0FA783B7B78691146DA
:105738001A469FED090B00F0DBFC38613B69002B32
:1057480001D000F01DFA002318461837BD4680BD69
:105758004B90C81781D44440000000000000F03F7F
:1057680068CE0120ACCE0120B0B58EB000AF87ED79
:10577800040B87ED021B0346FB71002387F83330C7
:105788008D4B1A688D4BDB6810461946FEF7F6FDFF
:10579800894B5A68894BDB6810461946FEF7EEFDBF
:1057A800D7E904014FF000024FF00003FBF732F98C
:1057B8000346002B01D00023EDE07F4B1B68184601
:1057C8000121FEF7A3FD7C4B5B6818460121FEF71B
:1057D8009DFDD7E904014FF000024FF00003FBF7ED
:1057E80023F90346002B09D04FF0FF337B633B6955
:1057F8003B617B6983F000437B6101E001237B63AC
:10580800D7E90223C7E90A23D7E904014FF00002C8
:105818006B4BFAF7C1FF02460B4614461D46D7E903
:105828000A015FA3D3E90023FAF7DAFC02460B4624
:1058380020462946FAF786FE02460B4610461946C8
:1058480059A3D3E90023FAF7A7FF02460B461046EF
:1058580019464FF000025B4BFAF774FE02460B46FE
:10586800104619464FF00002574BFAF76BFE0246F6
:105878000B4610461946FBF7FFF803467B62D7E94B
:105888000A2310461946FAF7ABFC02460B461046A7
:10589800194647A3D3E90023FAF7A0FC02460B46B2
:1058A80014461D46D7E90A2310461946FAF798FC0C
:1058B80002460B46104619463DA3D3E90023FAF7E2
:1058C8008FFC02460B4620462946FAF765FF02463A
:1058D8000B46C7E90623786BFAF7CEFD02460B465E
:1058E800D7E90601FAF72EFE02460B46C7E906235A
:1058F8007A6A324B5B685B009A4294BF00230123AB
:10590800DBB287F8333097F83330012B23D12B4B98
:105918005B6818460021002297ED060B00F080F91D
:105928007A6A264B5B68D31A7B627A6A234B5B6878
:10593800D31A7B62786A0021002297ED060B00F0EB
:10594800D7FB1E4B5B6818460021002297ED060B1B
:1059580000F0C6FA12E07B6ADA0F13445B107B6230
:10596800786A0021002297ED060B00F059F9786A51
:105978000021002297ED060B00F0B2FA0E4B1B68CF
:1059880018460021FEF70AFC0B4B5B6818460021FD
:10599800FEF704FC002318463837BD46B0BD00BFEB
:1059A8000000000000E044403333333333733840A1
:1059B8000000000000E0544068CE0120ACCE012079
:1059C800008076400000A94000001040AFF300803E
:1059D80080B584B000AF87ED000B0023FB73644BE8
:1059E8001A68644BDB6810461946FEF7C7FC604B23
:1059F8005A68604BDB6810461946FEF7BFFCD7E9CA
:105A080000014FF000024FF00003FBF703F80346D4
:105A1800002B01D000239EE0D7E900014FF00002DF
:105A28004FF00003FBF700F80346002B12D0504B51
:105A38001B6818460021FEF769FC4D4B5B68184649
:105A48000121FEF763FC3B683B607B6883F0004301
:105A58007B600BE0464B1B6818460121FEF756FC9D
:105A6800434B5B6818460021FEF750FCD7E900015C
:105A78004FF00002404BFAF78FFE02460B461046E5
:105A880019464FF000023D4BFAF75CFD02460B4603
:105A98001046194632A3D3E90023FAF753FD02460C
:105AA8000B4643EC172BB0EE470AF0EE670A03F0FB
:105AB8008BF8B860BA682F4B5B685B009A4294BF5A
:105AC80000230123DBB2FB73FB7B012B23D1294B82
