:020000040800F2
:1000000034570120650D0008610D0008610D0008DE
:10001000610D0008610D0008610D0008000000007E
:10002000000000000000000000000000610D00085A
:10003000610D000800000000610D00084D4200083D
:10004000610D0008610D0008610D0008610D0008D8
:10005000610D0008610D0008610D0008610D0008C8
:10006000610D0008610D0008610D0008610D0008B8
:10007000610D0008610D0008610D0008610D0008A8
:10008000610D0008610D0008610D0008610D000898
:10009000610D0008610D0008610D0008610D000888
:1000A000610D0008610D0008610D0008610D000878
:1000B000B9050008B1060008610D0008610D0008CF
:1000C000610D0008610D0008610D0008610D000858
:1000D000610D0008610D0008610D0008610D000848
:1000E000610D0008610D0008610D0008610D000838
:1000F000610D0008610D0008610D0008610D000828
:10010000610D0008610D000829630008610D0008F9
:10011000610D0008610D0008F9080008610D000874
:10012000610D0008610D0008610D0008610D0008F7
:10013000610D0008610D0008610D0008610D0008E7
:10014000610D0008610D0008610D0008610D0008D7
:10015000610D0008610D0008610D0008610D0008C7
:10016000610D0008610D0008610D0008610D0008B7
:10017000610D0008610D0008610D0008610D0008A7
:10018000610D0008610D00082DE9F04140F2D0003A
:1001900084B050220021C2F200000AF0D4FD0320F6
:1001A000012103F0EBFC002403200121C4F202042E
:1001B00003F0F2FC01210A46204605F02BFD022245
:1001C0002046072105F026FD02260027822320462F
:1001D00002A9012502938DF80C608DF80E708DF840
:1001E0000D6005F05FFC4FF4B672204602A9029242
:1001F0008DF80C508DF80E708DF80D6005F052FCE6
:100200004FF48060E02302A9C4F2020002938DF84B
:100210000D608DF80C508DF80E7005F043FC2046F3
:1002200020212A4605F0F0FC2A462046402105F010
:10023000EBFC2046042105F0E3FC2046082105F0F4
:10024000DFFC4FF005081C2101A88DF804108DF883
:1002500005808DF806508DF8075006F047F91D22ED
:1002600001A88DF804208DF805808DF8066006F051
:100270003DF92A4620464FF4807105F0C5FC204622
:10028000042105F0BFFC2046082105F0BBFC3846E0
:1002900004B0BDE8F08100BFF0B53A4C94F850309E
:1002A000012B054689B088BF40F6014001D909B04D
:1002B000F0BD03A80AF048F841F6573094F8501002
:1002C000019000260122772730230220ADF800702C
:1002D000ADF808603746ADF80260ADF80C30164650
:1002E000ADF80E20ADF8180000293BD14FF0804644
:1002F000304669462660277109F016FF94F85010C1
:1003000001EB810303A954F8330009F083FF94F84B
:10031000500000EB8002D100631801261E732B6091
:100320006058314609F05AFF94F8500000EB800203
:100330001548D300E1188268E0588A61314609F017
:100340005BFF94F8503003EB8300042154F8300035
:1003500032460AF00BF894F850108A1984F85020AD
:100360000020A4E7914202D040F602409FE74FF4FC
:100370008062C4F2000210466946A26284F82C60D2
:10038000BAE700BFD0000020B816002038B500241E
:10039000C4F20204002220464FF4807105F034FCC0
:1003A00040F2D003C2F2000300251868996A02885F
:1003B00022F001021204120C028008881D6120F054
:1003C00001021004020C0A80204604219D6305F0FE
:1003D00017FC2046082105F013FC284638BD00BF55
:1003E00010B50024C4F20204012220464FF48071AB
:1003F00005F00AFC2046042105F004FC20460821F3
:1004000005F000FC002010BD00697047002921DDC7
:1004100045F23073C0F20503994206DD03614FF6E1
:10042000FF720068C2620020704702692AB903683F
:100430001A8892B242F001021A8045F23073C0F27B
:10044000050393FBF1F2531E9AB20161002AE8D131
:100450000020704701680B8823F0010213041A0C76
:100460000A80002101610020704700BF08B50828FC
:100470001DD8DFE800F01F36451C541C1C1C05006D
:100480004FF480602021C4F2020005F0B9FB4FF464
:1004900080604021C4F2020005F0B2FB4FF480609E
:1004A000C4F20200802105F0ABFB002008BD40F63D
:1004B000014008BD4FF48060C4F20200202105F025
:1004C000A1FB4FF48060C4F20200402105F09AFBCA
:1004D0004FF48060C4F20200802105F093FB0020FD
:1004E00008BD4FF480602021C4F2020005F088FBB3
:1004F0004FF48060C4F20200402105F083FBE7E77F
:100500004FF48060C4F20200202105F07BFB4FF421
:100510008060C4F20200402105F072FBD8E74FF47E
:100520008060C4F20200202105F06AFBEFE700BF03
:1005300038B5037904460D464BB90020C4F20200D9
:1005400020212A4605F060FB2573002038BD012BD1
:1005500002D040F6014038BD0020C4F20200402124
:100560002A4605F051FB2573002038BD806870478E
:1005700081610020704700BF036913B1022101753A
:10058000704701680A8893B243F001020A8032235F
:1005900041F657320361CA6202210175704700BFFC
:1005A00003230375704700BF01230375704700BF25
:1005B00080ED080B017570474FF080432DE9F0473F
:1005C0001A8A02F0040081B289B1DFF8E0A04FF688
:1005D000FB721A82DAF80830581CCAF808009AF838
:1005E0001410032905D0052928D0022918D0BDE808
:1005F000F0872D49DAF810000A68904204D9DAF839
:100600001830C01ACAF8100045F23071C0F2050166
:10061000DAF8002091FBF0F0431ED362BDE8F087CA
:1006200048F29F62DAF81000C0F201029042EBDC5F
:10063000DAF81830C018CAF81000E5E7DAE908015E
:1006400002460B4609F002FF0446DAF838000D4670
:100650000AF048F812A3D3E9002306460F462046C5
:10066000294609F0F1FE0EA3D3E90023804689460E
:100670002046294609F0EAFE02460B464046494616
:100680000AF0C0F902460B46304639460AF090F8A7
:100690000AF028FBCAF81000B6E700BFAFF30080ED
:1006A0000000000000E05440B8160020D0000020F8
:1006B0004FF48063C4F200032DE9F0471A8A02F078
:1006C000040081B289B1DFF8DCA04FF6FB721A8218
:1006D000DAF83030581CCAF830009AF83C10032978
:1006E00005D0042928D0022918D0BDE8F0872C496C
:1006F000DAF838000A68904204D9DAF84030C01AB3
:10070000CAF8380045F23071C0F20501DAF8282045
:1007100091FBF0F0431ED362BDE8F08748F29F6280
:10072000DAF83800C0F201029042EBDCDAF840302F
:10073000C018CAF83800E5E7DAE9120102460B46AC
:1007400009F084FE0446DAF810000D4609F0CAFFED
:1007500011A3D3E9002306460F462046294609F097
:1007600073FE0DA3D3E9002380468946204629461F
:1007700009F06CFE02460B46404649460AF042F933
:1007800002460B46304639460AF012F80AF0AAFA39
:10079000CAF83800B6E700BF0000000000E054408F
:1007A000B8160020D0000020F0B541F2E463C2F298
:1007B000000387B00024022001211C704FF4006662
:1007C00003F0DCF90420012103F0D8F9C4F2020699
:1007D0001020012103F0E0F902273F22304601A951
:1007E000012501928DF808408DF8097005F05AF93D
:1007F000C023304601A901938DF808508DF80A40B6
:100800008DF8097005F04EF94FF48060032201A9BC
:10081000C4F2020001924FF4805605F043F93621EC
:100820006846C4F200068DF800108DF801708DF84E
:1008300002508DF8035005F059FE2722304603A9D7
:10084000049242F60312ADF80C20ADF81440ADF856
:100850000E408DF8164009F067FC304629462A46BE
:1008600009F084FD3046294609F0C6FC204607B051
:10087000F0BD00BF41F2E463C2F200030360002058
:10088000704700BF0078704730B54FF4806083B088
:100890000221C4F2020005F0B3F9022003F0AEFC1D
:1008A0004FF4806002230024C4F2020069460093E2
:1008B0008DF804408DF8053005F0F4F84FF48060B1
:1008C000C4F20200022105F095F901340346002824
:1008D000F4D14FF480600222C4F20200694601257F
:1008E00000928DF804508DF806308DF8052005F043
:1008F000D9F8204603B030BD4FF48053C4F2000352
:1009000030B41A8AD2071ED54FF6FE7016491882E7
:100910000878164A4FF4006301281478C4F20203E1
:1009200013D004F0D605157015781C6904F029045D
:100930002C43147080225A8340221A83D0F1010084
:1009400038BF0020087030BC704704F0E90515700E
:1009500015781C6904F016042C43147040225A8345
:1009600080221A83EAE700BF00000020E41600207E
:10097000028ACB8822F440521204F0B5120C0446CD
:100980001A4348890F898E880D4689892282A38956
:1009900023F4B05222F00C033E431A040643B3B2D0
:1009A000100C43EA0006A681A28A22F440700304D8
:1009B0001E0C0E4385B0A682684603F085F84FF4FE
:1009C0008051C4F201018C422CD04FF4A052C4F2E9
:1009D0000102944226D0A089029B06B2002E26DB9B
:1009E0002D6803EB830101EB8102AB00B2FBF3F155
:1009F00048F21F53A089C5F2EB13A3FB01567209FD
:100A000000B264251601002802FB151118DB0D0148
:100A10003235A3FB0553C3F34312324391B2218114
:100A200005B0F0BDA089039B06B2002ED8DA286875
:100A300003EB830606EB86054200B5FBF2F1D7E730
:100A4000C8003230A3FB0013C3F342123243E5E780
:100A5000838929B923F400510A04130C8381704758
:100A600099B241F400528281704700BFC905CA0D96
:100A700082807047038819420CBF00200120704714
:100A800030B51C4C9BB003E003F0B2FB854217D895
:100A9000A06900F043FB6069FFF7F6FE16490246C5
:100AA00001A80AF059F90A21012201ABA06900F05E
:100AB000A9FBA06900F02CFB03F09AFB00F5FA7586
:100AC0004FF400604FF48071C4F2020005F092F818
:100AD0000128D9D04FF40060C4F202004FF48071B5
:100AE00005F088F80128F5D1C82003F087FB002025
:100AF0001BB030BDEC1600203CCE000810B582B013
:100B000000202E2405F0E4FD07F062F807F056F807
:100B10007F2305210A224748009407F0BFFB07F016
:100B200057F840F6AC5003F069FB07F047F807F0C0
:100B30004FF828201E21142207F05CFC6420282195
:100B40000F2207F049FE6E2003210F22062308F032
:100B500079FA01203C2114230A2208F037F93C23BA
:100B60002D214622052008F083FC07F031F841F2E0
:100B70007C5003F043FB07F021F8142100220A20E7
:100B800008F01EFD012003F039FB07F021F80124D5
:100B9000E2B214210A2008F013FD0134012003F011
:100BA0002DFB07F015F81421E2B20A2008F008FD29
:100BB0000134012003F022FB07F00AF8652CE7D18D
:100BC000082007F0DBFA01211B4A1C4B0D2007F01F
:100BD0006FF906F0FDFF40F2DC5003F00FFB192126
:100BE000174A184B012007F063F906F0F1FF4FF4A4
:100BF000FA7003F003FB2321134A124B012007F084
:100C000057F906F0E5FF40F2DC5003F0F7FA372120
:100C10000E4A0F4B0A2007F04BF906F0D9FF41F2BC
:100C2000883003F0EBFA06F0C9FF06F0D1FF002090
:100C300002B010BD4CCE000888D40008C4F40008EF
:100C400094D40008D4F40008ACD40008BCD4000844
:100C5000DCF4000800B5002083B005F039FD06F093
:100C6000ADFF0823009378210022064807F016FB09
:100C700006F0AEFF4FF47A6003F0C0FA002003B034
:100C800000BD00BF48D1000800B5002083B005F0CA
:100C90001FFD06F093FF40230C210022064800931D
:100CA000672307F0FBFA06F093FF42F2107003F09F
:100CB000A5FA002003B000BD50D1000800000000DC
:100CC00008B52DED048BFFF761FB9FED1F8B4FF4F3
:100CD000FA6003F093FA9FED1E9B00210A4640F252
:100CE000051001F049FBB0EE481AF0EE681A9FEDCE
:100CF0001A0B002002F048FCB0EE490AF0EE690A37
:100D0000B0EE481AF0EE681A002002F03DFC002117
:100D10000A46AB2001F030FBB0EE490AF0EE690A5A
:100D2000B0EE481AF0EE681A002002F02DFC002107
:100D30000A46552001F020FBFFF752FB0020BDECD6
:100D4000048B08BDAFF30080000000000000564097
:100D5000000000000080564000000000008056C0E7
:100D6000FEE700BF19491A4B994270B41BD2DA1C36
:100D70000C1D151B174825F00302161D05680423DA
:100D8000B3420D60C2F380020DD022B14268082345
:100D9000B342226007D01A1D1D5884585D50083395
:100DA000B3428C50F7D10C480C494FF000028842F6
:100DB000B8BF40F8042BFFF6FAAFDFF82400016853
:100DC00041F47001016070BC00F0B8BF0000002069
:100DD000CC0000204CFA0008D0000020341700207E
:100DE00088ED00E00000000010B5FFF7DDFC0446D0
:100DF00008B1204610BD21461348FFF73BFD0446CD
:100E00000028F6D1FFF7C2FA4FF4FA7003F0F6F9B2
:100E10002146224640F2DC5001F0AEFA9FED080B6D
:100E200002F0EEFC2146224640F2DC5001F0A4FA2A
:100E30004FF47A7003F0E2F9FFF7D2FA204610BDC2
:100E40000000000000806640E8160020AFF300803C
:100E500010B4002102460B46445C3CB1A4F13003BF
:100E6000DBB20F2B84BFA4F13703DBB243545478B9
:100E70003CB1A4F13003DBB20F2B84BFA4F13703E4
:100E8000DBB2947853703CB1A4F13003DBB20F2B8A
:100E900084BFA4F13703DBB2D47893703CB1A4F1E2
:100EA0003003DBB20F2B84BFA4F13703DBB214791C
:100EB000D3703CB1A4F13003DBB20F2B84BFA4F19B
:100EC0003703DBB2547913713CB1A4F13003DBB2C8
:100ED0000F2B84BFA4F13703DBB2947953713CB17B
:100EE000A4F13003DBB20F2B84BFA4F13703DBB2D4
:100EF000D47993713CB1A4F13003DBB20F2B84BFE2
:100F0000A4F13703DBB2147AD3713CB1A4F13003FE
:100F1000DBB20F2B84BFA4F13703DBB2547A137218
:100F20003CB1A4F13003DBB20F2B84BFA4F1370333
:100F3000DBB2947A53723CB1A4F13003DBB20F2BD5
:100F400084BFA4F13703DBB20B3193720B327929E2
:100F500082D110BC704700BF10B541F2EC64C2F200
:100F60000004C82240F28A21606803F0C3FA4FF4FB
:100F7000487003F043F9C82240F28A21606803F008
:100F8000B9FA4FF4487003F039F9C82240F28A21C7
:100F9000606803F0AFFA4FF4487003F02FF960680F
:100FA0004FF425614FF4FA7203F0A4FA4FF4FA708B
:100FB000BDE8104003F022B9DFF89CC00023FF29F0
:100FC00028BFFF21F0B40CF8F83C00293FD003788B
:100FD000A3F12004A3F16106E4B2192E88BF1C46D8
:100FE000654601234A1E8B4205F8F84D02EA0302CA
:100FF00025D062B14378A3F12002A3F16104D2B2FB
:10100000192C88BF1A4602238B426A7017D0C75C1E
:10101000A7F12004E2B2A7F16106192E98BF174686
:101020005F555A1C0233845CA4F12006A4F16107C9
:10103000F6B2192F98BF34468B42AC54E7D10CEB73
:101040000300002100F8F81C0248F0BC70470B4672
:10105000F5E700BF281100202012002030B5042041
:1010600085B0012102F08AFD04A94FF47C534FF4AE
:10107000006041F8083D022200240125C4F202006C
:101080008DF80D208DF80C408DF80F5004F00AFDFE
:101090002146174803F0F8F9204605F019FB06F041
:1010A00097FD06F08BFD2E21124800912A4605215E
:1010B0007F2307F0F3F806F08BFDE2B237210A2018
:1010C00008F07EFA023406F083FD0A2003F096F859
:1010D0000A203721E2B208F073FA023406F078FDF4
:1010E0000A2003F08BF8642CE7D1002005B030BD56
:1010F00028120020D8D4000810B50C46002108F0B2
:10110000F3FF41F22823C2F2000300205C6010BD0F
:1011100008B506F05DFD002008BD00BF30B585B004
:10112000082406F04BFD3448009478210022234621
:1011300007F0B4F8314B002158680DEB040202F0BF
:101140005DFF054620B9BDF80800B0F5877F02D2E3
:10115000284605B030BD642202FB00F1A1F5D24063
:1011600048F2DB137838C7F2B963C21783FB001368
:10117000C2EB6311612912DC59291ADC4A291FDCF0
:10118000312924DC1D2929DC0E292EDC0429DFDD90
:10119000792003210122042307F018FED8E706F086
:1011A0000DFD0094164878210122234607F076F8B9
:1011B000CEE7792003210622042307F007FEC7E7C4
:1011C000792003210522042307F000FEC0E7042252
:1011D00079200321134607F0F9FDB9E703217920AF
:1011E0000A46042307F0F2FDB2E779200321022228
:1011F000042307F0EBFDABE7D4D70008281200204A
:10120000DCD7000808B5084611461A464FF2D44309
:10121000C0F6000306F04CFE002008BD38B50C46B1
:10122000154606F0CBFC78223C230221042007F06F
:1012300009FF204609F0B4FD01462046FFF7BCFE39
:1012400003210246184B052006F032FE052003213B
:101250007622082307F028FE062014212A46134B85
:1012600006F026FE06203521114A0F4B06F020FE1F
:1012700006F0AEFC4FF40060C4F202004FF40061CF
:1012800004F0B8FC0128F5D04FF40060C4F202006D
:101290004FF4006104F0AEFC0028F5D04FF49670D6
:1012A00002F0ACFF002038BDDCF40008D4F40008E4
:1012B000E4D700082DE9F0410D4682B014781746B6
:1012C0008046FFF72BFF284609F06AFD01462846B5
:1012D000FFF772FE0246002001464F4B06F0E8FD84
:1012E0000A21002080220B4608F0C2F8012C00F0F1
:1012F0008D804A4B1868020CADF804008DF806206A
:1013000000201C2101AA464B444E06F0D1FD0020CE
:101310003221444A404B06F0CBFD44F2595500209F
:101320003921414A3C4B06F0C3FDC0F2530506F09B
:101330004FFC15E0012C61D00195012400201C21F7
:10134000A422082307F00EFE00201C2101AA344B22
:1013500006F0AEFD06F03CFC4FF4967002F04EFF36
:101360004FF400604FF48071C4F2020004F042FCBC
:101370004FF4007180B34FF40060C4F2020004F037
:1013800039FC0028D6D04FF400604FF48061C4F2DD
:10139000020004F02FFC0028CCD04FF40060C4F20F
:1013A00002004FF4006104F025FC0028D8D14FF46E
:1013B0000060C4F202004FF4006104F01BFC00283E
:1013C000F5D04FF4967002F019FF3C704046FFF7DD
:1013D000A5FE06F0FDFB0DE04FF40060C4F2020034
:1013E0004FF4807104F006FC0028F5D04FF496709D
:1013F00002F004FF002002B0BDE8F0813468230C45
:10140000ADF804408DF80630002497E744F25951B6
:10141000C0F25301019173E7DCF4000800D8000822
:10142000C4F40008E4D7000804D800082DE9F0410E
:101430000D468AB0146817461E468046FFF76EFEBA
:10144000284609F0ADFC01462846FFF7B5FD0246E7
:1014500000200146464B06F02BFD0A210B460020DA
:10146000802208F005F843492246684609F074FCDA
:1014700000201C216A46404B06F01AFD0020322154
:101480003E4A3B4B06F014FD002039213C4A384BC4
:1014900006F00EFD06F09CFB4FF400604FF48071E7
:1014A000C4F2020004F0A6FB4FF4007108B34FF43D
:1014B0000060C4F2020004F09DFB082305464FF4CF
:1014C0008061A422002826D1A4191C2107F04AFD1E
:1014D00022466846274909F03FFC28461C216A46F7
:1014E000254B06F0E5FC06F073FB642002F086FE57
:1014F000D2E74FF40060C4F202004FF4807104F0B0
:1015000079FB0028F5D04FF4967002F077FE0020AA
:101510000AB0BDE8F0814FF40060C4F2020004F0AC
:1015200069FB082305461C21A42208B9A41BCDE7AA
:101530004FF40060C4F202004FF4006104F05AFB63
:101540000028A9D14FF40060C4F202004FF40061FA
:1015500004F050FB0028F5D04FF4967002F04EFED8
:101560003C604046FFF7DAFD06F032FBCFE700BFF4
:10157000DCF40008A8E70008C4F40008E4D7000879
:1015800004D800082DE9F04FB9B016460291039037
:101590000593002900F047834B690C461434002B57
:1015A00000F091832246002052F8141F01300029D8
:1015B000FAD1052834BF054605252F460398FFF7C5
:1015C000ADFD029DC04B2A680020014606F070FC6C
:1015D0000A21002080220B4607F04AFF002F00F06E
:1015E000A78025682B7807F1FF395B2B0DF1180ACE
:1015F00009F0010900F0BE8201200F212A46B34BF9
:10160000012506F055FCBD424FF0190800F090800E
:10161000B9F1000F13D0D4F8149099F800205B2A88
:1016200004F1140B00F0BF82284641464A46A74BFE
:1016300006F03EFC0135BD4208F10A0878D0049658
:101640001CE0012041463246A04B06F031FC01353A
:1016500005EB850308F10A0854F8236031785B290B
:1016600004EB830939D0012041463246974B0135BE
:1016700006F01EFCBD4208F10A0858D005EB8503B0
:1016800004EB830B54F8236032785B2AD9D1D9005C
:101690003046019109F084FB019B0AEB0309821E8D
:1016A000F11C484609F046FB7078622800F0FC8186
:1016B0006C280BD1484609F073FB019BDBF80860EE
:1016C000834932681818504409F046FB012041460E
:1016D0004A467E4B06F0ECFBB9E7DA003046019251
:1016E00009F05EFB019B0AEB030B821EF11C5846BE
:1016F00009F020FB7078622800F0BF816C280BD1C4
:10170000584609F04DFB019BD9F8086070493268D2
:101710001818504409F020FB012041465A466B4BF3
:10172000013506F0C5FBBD4208F10A08A6D1049EAA
:101730000E21002080220A2307F0B6FB06F048FAAB
:10174000012131604FF00E0A4FF40060C4F2020034
:101750004FF4807104F04EFA002800F0BB804FF483
:101760000060C4F202004FF4806104F043FA804646
:1017700018B93268BA42C0F0C0804FF40060C4F2B9
:1017800002004FF4007104F035FA8146002871D14F
:101790003268012A6EDD5FFA8AF808F1FF31A8F19C
:1017A0000A03CDB25FFA83F8454580F01581691EC2
:1017B000C5EB080C80220A23C9B20CF0010B07F01C
:1017C00073FB294680220A23484607F06DFB06F08A
:1017D000FFF9022002F012FD681CC5B2A84535D3FE
:1017E000BBF1000F08D0691E484680220A23C9B207
:1017F00007F05AFB48461BE06B1ED9B2002080223E
:101800000A2307F051FB294680220A23002007F013
:101810004BFB06F0DDF9022002F0F0FC6A1CD5B2A9
:10182000691E0020C9B280220A2307F03DFB002078
:10183000802229460A2307F037FB06F0C9F9022067
:1018400002F0DCFC6A1CD5B2A845D5D241F2282EA4
:10185000C2F2000E4FF47A610A22DEF8000002F0B4
:1018600049FE4FF4967002F0C9FC3368581EAAF185
:101870000A0A30604FF40060C4F202004FF40061C5
:1018800004F0B8F900287FF45FAF4FF40060C4F2B1
:1018900002004FF4006104F0ADF90028F5D04FF4D8
:1018A000967002F0ABFC3568691E01EB810304EB16
:1018B00083056A68002A00F0A1819047059D012DEB
:1018C0007FF47CAE002015E0DCF40008D4F40008BE
:1018D000A8E700084FF40060C4F202004FF48071E2
:1018E00004F088F90028F5D04FF4967002F086FCD9
:1018F0000020306039B0BDE8F08F5FFA8AFB0BF151
:1019000001030BF10A09DDB25FFA89F94D4580F058
:10191000E080691EC5EB090E80220A23C9B20EF0D1
:10192000010B07F0C1FA802229460A23404607F03E
:10193000BBFA06F04DF9022002F060FC6A1CD5B239
:10194000A94535D3BBF1000F08D0691E404680225F
:101950000A23C9B207F0A8FA40461BE06B1ED9B2B1
:10196000002080220A2307F09FFA294680220A23BA
:10197000002007F099FA06F02BF9022002F03EFC55
:10198000681CC5B26A1E0020D1B20A23802207F06B
:101990008BFA0020294680220A23013507F084FAB9
:1019A000EDB206F015F9022002F028FCA945D5D2C7
:1019B00041F22825C2F200054FF47A610A22286814
:1019C00002F098FD4FF4967002F018FC3368581C32
:1019D0000AF10A0A3060D0E6691C80220A23C9B2E3
:1019E00007F062FA294680220A23484607F05CFA8B
:1019F00006F0EEF8022002F001FC681EC8EB050BB1
:101A0000C5B2A8450BF0010B3FF620AFBBF1000FAC
:101A100008D0691C484680220A23C9B207F044FA5C
:101A200048461BE06B1CD9B2002080220A2307F035
:101A30003BFA294680220A230020013D07F034FAB0
:101A4000EDB206F0C5F8022002F0D8FB691C0020B8
:101A5000C9B280220A2307F027FA002080222946F3
:101A60000A2307F021FA06F0B3F8022002F0C6FBC1
:101A70006A1ED5B2A845D5D9E8E6D9F808100A7883
:101A8000012A584600F0D28009F08AF94DF6000E7E
:101A9000C0F6000E0BEB0003BEF800609EF80210CB
:101AA0002BF80060997037E6DBF8082011780129DF
:101AB000484600F0C68009F073F94DF60003C0F601
:101AC000000309EB00021E88997829F800609170E4
:101AD000FCE5691CC9EB050C80220A23C9B20CF095
:101AE000010B07F0E1F9294680220A23404607F05E
:101AF000DBF906F06DF8022002F080FB681EC5B22B
:101B0000A9453FF655AFBBF1000F08D0691C404610
:101B100080220A23C9B207F0C7F940461BE06B1CBC
:101B2000D9B2002080220A2307F0BEF9294680227C
:101B30000A23002007F0B8F906F04AF8022002F064
:101B40005DFB681EC5B2691C0020C9B280220A2351
:101B500007F0AAF90020802229460A2307F0A4F9F9
:101B600006F036F8022002F049FB6A1ED5B2A945FC
:101B7000D5D91DE7284609F013F9E91C821E504605
:101B800009F0D8F86A78622A554666D06C2A7FF444
:101B900033AD504609F004F9A36858491A68504417
:101BA00009F0DAF828E5484609F0FAF80AF1280CB5
:101BB000821E09F103016046CDF800C009F0BAF8B1
:101BC00099F80130DDF800C0622B5BD06C2B0ED190
:101BD0006046CDF800C009F0E3F8DBF8082047497B
:101BE00012682830504409F0B7F8DDF800C0012031
:101BF00041466246424B06F05BF91BE5AA68002AA3
:101C00003FF45CAE54F823004178622954D06C292B
:101C10007FF454AE0DF1180C0CEBC3010398EB6884
:101C2000FFF704FC4AE640F6015063E609F0B8F815
:101C300002464DF62000C0F6000003684BF8023063
:101C40006AE509F0ADF84DF6200CC0F6000C02462E
:101C5000DCF8000049F8020038E5A1680A78012A9A
:101C6000504632D009F09CF84DF6000EC0F6000E3A
:101C70000AEB0003BEF800109EF802202AF80010BC
:101C80009A70B9E4DBF808000178CDF800C00129AA
:101C9000604625D009F084F84DF6000EDDF800C04E
:101CA000C0F6000E0CEB0003BEF800109EF80220F8
:101CB0002CF800109A709AE706AD039805EBC30163
:101CC000FFF7F8FAFAE51D4677E409F069F80346EC
:101CD0004DF62000C0F6000001684AF803108BE4BE
:101CE00009F05EF803464DF62000C0F60000DDF86E
:101CF00000C001684CF8031079E700BFA8E70008AE
:101D0000D4F4000808B5084611461A469DF8083074
:101D100007F0AEFB002008BD08B5084611461A467C
:101D20009DF8083007F052F8002008BD084608B5B5
:101D300011461A4606F050FD002008BD3C4B10B578
:101D400041F27C5041F639110522062483E8170040
:101D500032221A6140F2DC5040F6B8314FF4FA6496
:101D60000022DC615861996183F8202002F006FAB4
:101D7000044608B1204610BD02F0B2F8044600281F
:101D8000F8D102F03DFB04460028F3D108F090F9A9
:101D900004460028EED104F06DFB04460028E9D18A
:101DA00004F01CFA04460028E4D1FEF7FDFC0446CA
:101DB0000028DFD1FEF7E8F904460028DAD1FFF762
:101DC0004DF904460028D5D121461A4802F0ACF856
:101DD00004460028CED11848002102F055FB0446E5
:101DE0000028C7D12146154808F07EF9044600288E
:101DF000C0D12146124804F03FFB04460028B9D167
:101E000021461048FEF736FD04460028B2D1094BA2
:101E100003F118001968FFF76FF904460028A9D1EB
:101E200000F082FA04460028A4D102F047F8A1E7A6
:101E3000B8160020EC160020F0160020F416002042
:101E4000F8160020001700202DE9F0432DED028B3D
:101E50009F4D83B06869FEF715FD00F0200304462E
:101E6000D8B2002800F09B80E3072ED5994EA868D1
:101E70000221002208F040F900220421A86808F09D
:101E80003BF97068FEF7C0FA0546B068FEF7BCFA89
:101E9000914B291801EBD172596970685510B5FB47
:101EA000F1F229460192FEF7B1FAB0682946FEF731
:101EB000ADFA032004F022FA84F00400C0F380009D
:101EC00003B0BDEC028BBDE8F08304F01FFA0228DA
:101ED000804E00F0DC8070787F4F431CF969DBB2E4
:101EE000B1FBF3F000223270737004F0D5F9F96998
:101EF0007078B1FBF0F004F0D7F9032004F0FEF99C
:101F0000022004F009FA04F002085FFA88F9B9F136
:101F1000000F77D104F0ECF9012809D004F0B6F9EC
:101F200004F0DEF9484604F0BFF9012004F0E6F9B8
:101F300004210022A86808F0DFF801220221A86825
:101F400008F0DAF87068FEF75FFA8146B068FEF7CD
:101F50005BFA7D69804604F0B5F909EB080101EBF5
:101F6000D17342195810019208F0BCFB41EC100BE0
:101F700041EC180B756808F00DFA019941182846D4
:101F8000FEF744FAB0EE480AF0EE680AB56808F0C9
:101F900001FA019BC11A2846FEF738FA8CE704F0D3
:101FA000B5F901284B4E78D033784B4F5A1CF8695D
:101FB000D1B20023B0FBF1F07370317004F06CF912
:101FC0003278F869B0FBF2F004F06EF9032004F007
:101FD00095F9012004F0A0F904F0100C5FFA8CF8D8
:101FE000B8F1000F64D104F083F9022818D004F08E
:101FF00047F904F06DF9404604F04EF9022004F070
:102000007DF90DE004F074F9022809D004F038F9E4
:1020100004F05EF9002004F03FF9022004F06EF9AC
:1020200002210022A86808F067F801220421A868AC
:1020300008F062F87068FEF7E7F98146B068FEF7CD
:10204000E3F97D69804604F037F909EB080202EBF9
:10205000D27143194810019308F044FB41EC100B76
:1020600041EC180B756808F095F9019A811A284619
:10207000FEF7CCF9B0EE480AF0EE680AB56808F051
:1020800089F9019941182846FEF7C0F914E77778D5
:10209000012F7FF620AF104F35E73778012F83D916
:1020A00004F0100C5FFA8CF80B4FB8F1000F9AD0C7
:1020B00004F01EF901283FF43BAF04F0E7F804F008
:1020C0000FF9002004F0F0F8012004F017F92FE7D1
:1020D000EC16002030120020B81600202DE9F84F31
:1020E0004F4E504C81462168706817469846FEF75F
:1020F0008DF92168B068FEF789F90023384641461A
:102100000022C3F6F07308F0C5FD38BB7068FEF717
:102110002DFA09EB000AB068FEF728FA81447068CE
:102120003F4FFEF729FAB068FEF726FA7068FEF70F
:102130001DFA0446B068FEF719FA5445054609DA57
:102140004D45F3DBB068FEF72FFA5445EEDB002077
:10215000BDE8F88F7868FEF727FAF1E73846414680
:102160000022002308F096FD60BBB068FEF74CF932
:1021700008F0B8FA02460B463846414608F018FB0C
:1021800041EC100BB46808F005F901462046FEF753
:102190003DF97068FEF7EAF909EB000AB068FEF74E
:1021A000E5F98346484608F09DFA02460B46384654
:1021B000414608F0FDFA41EC100B08F0EBF80BEB90
:1021C0000009ACE77068FEF71FF908F08BFA08F118
:1021D000004802460B463846414608F0E9FA41EC11
:1021E000100B746808F0D6F801462046FEF70EF989
:1021F0007068FEF7BBF98246484608F073FA02465B
:102200000B463846414608F0D3FA41EC100B08F073
:10221000C1F88244B068FEF7A9F981447FE700BFA6
:1022200030120020B81600202DE9F84F17461E4640
:10223000002381460022C3F6F0733846314608F089
:1022400029FD80BBDFF8DC80D8F80400FEF78EF9AA
:1022500009EB000AD8F80800FEF788F98144D8F89D
:102260000400304EFEF79CF9D8F80800FEF798F904
:10227000D8F80400FEF77AF90446D8F80800FEF70B
:1022800075F9544505460ADA4D45F1DBD8F80800E2
:10229000FEF78AF95445EBDB0020BDE8F88F706843
:1022A000FEF782F9F0E7384631460022002308F0B5
:1022B000F1FCDFF87080D0B9D8F80400FEF756F9C9
:1022C00009EB000AD8F80800FEF750F983464846A3
:1022D00008F008FA02460B463846314608F068FA1C
:1022E00041EC100B08F056F80BEB0009B7E7D8F8F3
:1022F0000400FEF73BF98246484608F0F3F906F180
:10230000004602460B463846314608F051FA41EC89
:10231000100B08F03FF88244D8F80800FEF726F9C1
:1023200081449CE73012002038B5114D0021281D52
:10233000FDF7B2FF044608B1204638BD214605F13D
:102340000800FDF7A9FF04460028F5D1FEF748F87C
:102350000820FEF78BF804460028EDD101216868BB
:10236000FEF7E6F8A8680121FEF7E2F8E4E700BF0F
:1023700030120020000000002DE9F04FB0F10008FD
:1023800085B00E46174664D09D4CC0F2C680012130
:102390006068FEF7CDF8A0680121FEF7C9F8994DF5
:1023A0006068A968DFF858B2FEF7E2F8A968A0688B
:1023B000FEF7DEF8404608F095F98DA3D3E9002337
:1023C00008F0F6F941EC100B07F0E4FFD5F804A093
:1023D00007F0010287F002034FEA4007C3F3400110
:1023E000B7EB4A0F8146039182F0010067D90028BC
:1023F00040F0128306F0200006F0010302900193E2
:10240000039B6068002B40F00181FEF7AFF807EBFB
:102410000008A068FEF7AAF80299019A3F18CBB20B
:10242000D0B2002E40F084806068FEF79FF8064628
:10243000A068FEF79BF88146FFF706FD431E012BBF
:1024400003D9B045F0DC4F45EEDC8346BBF1000F0D
:102450000BD1002005B0BDE8F08F29696068FEF758
:1024600087F8A0682969FEF783F829696068FEF794
:102470007FF82969A068FEF77BF86068FEF790F89E
:10248000A068FEF78DF860685D4FFDF7BDFF06465A
:10249000A068FDF7B9FF29688E42F4D88142F2D3D3
:1024A0007868FEF781F8B868FEF77EF80021786852
:1024B000FDF7ACFFB8680021FDF7A8FFC9E70028C9
:1024C00040F0608206F0200206F0010301920293C0
:1024D00003996068002940F0FD80FEF747F807EB9C
:1024E0000008A068FEF742F8019A3F180298D3B29C
:1024F000C1B2002E4BD16068FEF738F80646A068DE
:10250000FEF734F88146FFF79FFC431E012B9CD950
:10251000B045F0DC4F45EEDC97E700216068FEF740
:1025200007F8A0680021FEF703F8C8F1000836E7B5
:10253000DFF8D4A0002840F08F81002B40F0E98123
:102540006068FEF713F80646A068FEF70FF88146AC
:10255000FFF77AFC83460BF1FF310129C6EB080037
:102560007FF674AF08F0BEF823A3D3E9002308F088
:102570009BFB18B1DAF81400FEF784F9B045DFDCF4
:102580004F45DDDCBBF1000F3FF463AF6DE7DFF8D3
:1025900078A0002940F0D580002B40F02F816068A2
:1025A000FDF7E4FF0646A068FDF7E0FF8146FFF770
:1025B0004BFC83460BF1FF32012AC6EB08007FF685
:1025C00045AF08F08FF80CA3D3E9002308F06CFBAB
:1025D00018B1DAF81400FEF755F9B045DFDC4F45C5
:1025E000DDDCBBF1000F3FF434AF3EE7AFF300801A
:1025F0004B90C81781D44440E90A7289D54ABD403E
:1026000030120020B8160020EC160020FDF7AEFFB7
:10261000CAEB070707EB0008A068FDF7A7FF029ABF
:102620003F180198D3B2C1B2002E40F044826068D6
:10263000DFF804ACFDF79AFF0646A068FDF796FFA9
:102640008146FFF701FC421E012A7FF60EAFB0451E
:10265000EDDC4F45EBDCDAF804006F68FDF786FF30
:1026600007EB0008DAF80800FDF780FF07EB000928
:10267000DAF80400FDF794FFDAF80800FDF790FFA0
:102680006068FDF773FF0646A068FDF76FFF4645DB
:10269000074680F26C81B94540F37081FFF7D4FBA7
:1026A00001283FF4E2AE4645EADBB945E8DC834663
:1026B0000BF1FF33012B7FF6D8AE00216068FDF7E8
:1026C000A5FEA0680021FDF7A1FEBBF1000F3FF4BD
:1026D000C0AECAE6FDF74AFF07EB0008A068DFF8C6
:1026E00058ABFDF743FF3F186068FDF759FFA0683E
:1026F000FDF756FF01980299C3B2CAB2002E40F00E
:10270000C5826068FDF732FF0646A068FDF72EFF20
:10271000B04581460BDD4F450FDDFFF795FB0128E6
:102720003FF4A3AEB045ECDC4F45EADCBFE7DAF896
:102730000400FDF739FF4F45EFDCA068FDF734FFDB
:10274000EBE753BB6068FDF711FF0646A068FDF795
:102750000DFF8146FFF778FB83460BF1FF32012A1C
:10276000C6EB08007FF672AE07F0BCFF0FF6C02381
:10277000D3E9002308F098FA30B1DAF81400FEF734
:1027800081F8C0073FF569AEB045DBDC4F45D9DCC9
:10279000BBF1000F3FF45DAE67E66068FDF7E6FE53
:1027A0000646A068FDF7E2FE8146FFF74DFB834633
:1027B0000BF1FF32012AC6EB08007FF647AE07F0A7
:1027C00091FF0FF66C23D3E9002308F06DFA60B196
:1027D000DAF81400FEF756F800F02003D9B2002909
:1027E0007FF43BAEC1073FF538AEB045D5DC4F4571
:1027F000D3DCBBF1000F3FF42CAE36E66068FDF78A
:10280000B5FE0646A068FDF7B1FE8146FFF71CFB4A
:1028100083460BF1FF33012BC6EB08007FF616AEA3
:1028200007F060FF0FF60823D3E9002308F03CFA15
:1028300048B1DAF81400FEF725F800F02000C1B224
:1028400000297FF40AAEB045D8DC4F45D6DCBBF199
:10285000000F3FF4FEAD08E653BB6068FDF786FE4F
:102860000646A068FDF782FE8146FFF7EDFA834633
:102870000BF1FF310129C6EB08007FF6E7AD07F049
:1028800031FF0FF6AC13D3E9002308F00DFA30B195
:10289000DAF81400FDF7F6FFC2073FF5DEADB045EC
:1028A000DBDC4F45D9DCBBF1000F3FF4D2ADDCE5FA
:1028B0006068FDF75BFE0646A068FDF757FE81469F
:1028C000FFF7C2FA83460BF1FF310129C6EB08007E
:1028D0007FF6BCAD07F006FF0FF65413D3E90023D3
:1028E00008F0E2F960B1DAF81400FDF7CBFF00F070
:1028F0002003DAB2002A7FF4B0ADC3073FF5ADADD7
:10290000B045D5DC4F45D3DCBBF1000F3FF4A1ADA2
:10291000ABE56068FDF72AFE0646A068FDF726FED7
:102920008146FFF791FA83460BF1FF33012BC6EB8B
:1029300008007FF68BAD07F0D5FE0FF6F403D3E960
:10294000002308F0B1F948B1DAF81400FDF79AFF56
:1029500000F02000C2B2002A7FF47FADB045D8DC81
:102960004F45D6DCBBF1000F3FF473AD7DE5DAF8DF
:102970000400FDF719FEB9453FF790AEA068FDF7DA
:1029800013FE8BE62968DBF80400FDF73FFD29689C
:10299000DBF80800FDF73AFDDBF80400FDF7E6FD83
:1029A00009EB0007DBF80800FDF7E0FD4844009064
:1029B000DBF80400FDF7E0FD06F0200106F001025F
:1029C000DBF8080001910292FDF7D6FD019B029908
:1029D000D8B2CAB2002E40F08983CA466068FDF7BB
:1029E000C5FD8046A068FDF7C1FD8146FFF72CFAC2
:1029F00001283FF43AAD474509DD009B9945EDDBE1
:102A0000A068FDF7D1FD4745E8DC574660E5DBF8F7
:102A10000400FDF7C9FDF0E72968DBF80400FDF7C5
:102A2000F5FC2968DBF80800FDF7F0FCDBF8040092
:102A3000FDF79CFD0AEB0008DBF80800FDF796FDAA
:102A40008244DBF80400CDF800A0FDF795FD06F008
:102A5000200106F00102DBF8080002910192FDF767
:102A60008BFD02980199C3B2CAB2002E40F0C98210
:102A7000BA466068FDF77AFD0746A068FDF776FD67
:102A80008146FFF7E1F901283FF4EFACB8450DDDD1
:102A900000984845EDDCA068FDF786FDB845E8DC08
:102AA0005746D5F804A0CAEB0707A9E4DBF80400F1
:102AB000FDF77AFDECE7DFF884A7002900F0C78175
:102AC000002B64D16068FDF751FD0646A068FDF754
:102AD0004DFD8146FFF7B8F9411E0129C6EB0800FC
:102AE0007FF6C3AC07F0FEFD0FF24473D3E9002379
:102AF00008F0DAF830B1DAF81400FDF7C3FEC307C6
:102B00003FF5ABACB045DDDC4F45DBDC60686E68A3
:102B1000DFF824A7FDF72AFD3718A068FDF726FD8A
:102B200006EB00096068FDF73BFDA068FDF738FD86
:102B30006068FDF71BFD0646A068FDF717FDBE4265
:102B4000804680F29580C84580F28E80FFF77CF940
:102B50008346BBF1010FC6EB07003FF486AC07F0DC
:102B6000C1FD0FF2CC63D3E9002308F09DF848B112
:102B700041F2EC60C2F200004069FDF783FEC2073B
:102B80003FF573ACBE42D3DBC845D1DB90E560684E
:102B9000FDF7ECFC0646A068FDF7E8FC8146FFF770
:102BA00053F9421E012AC6EB08007FF65EAC07F01F
:102BB00099FD0FF27C63D3E9002308F075F860B14A
:102BC000DAF81400FDF75EFE00F02003D9B2002908
:102BD0007FF443ACC0073FF540ACB045D7DC4F4570
:102BE000D5DC60686E68DFF850A6FDF7BFFC3718CB
:102BF000A068FDF7BBFC06EB00096068FDF7D0FCA0
:102C0000A068FDF7CDFC6068FDF7B0FC0646A06843
:102C1000FDF7ACFCBE42804633DAC8452DDAFFF73B
:102C200013F9012883463FF420ACB81B07F05AFD86
:102C30000FF2FC53D3E9002308F036F878B141F2E3
:102C4000EC60C2F200004069FDF71CFE00F02002BB
:102C5000D3B2002B7FF409ACC1073FF506ACBE42EE
:102C6000D1DBC845CFDB23E5A068FDF79DFC6DE710
:102C7000DAF80400FDF798FC65E7A068FDF794FC1E
:102C8000CDE7DAF80400FDF78FFCC6E7002A71D023
:102C900063BB6068FDF76AFC0646A068FDF766FC4A
:102CA000B045814661DD4F455BDDFFF7CDF88346DA
:102CB000BBF1010FC6EB08003FF4D7AB07F012FDE4
:102CC0000FF26C53D3E9002307F0EEFF48B141F255
:102CD000EC62C2F200025069FDF7D4FDC2073FF575
:102CE000C4ABB045D5DC4F45D3DCE1E46068FDF70B
:102CF0003DFC0646A068FDF739FCB04581462BDD5A
:102D00004F4525DDFFF7A0F8012883463FF4ADAB22
:102D1000C6EB080007F0E6FC0FF21453D3E90023DA
:102D200007F0C2FF78B141F2EC60C2F200004069E6
:102D3000FDF7A8FD00F02003D9B200297FF495AB80
:102D4000C3073FF592ABB045D0DC4F45CEDCAFE4D6
:102D5000A068FDF729FCD5E7DAF80400FDF724FCAC
:102D6000CEE7A068FDF720FC9FE7DAF80400FDF746
:102D70001BFC98E74BBB6068FDF7F8FB0646A068B4
:102D8000FDF7F4FBB04581465CDD4F4556DDFFF7AE
:102D90005BF88346BBF1010FC6EB08003FF465AB5F
:102DA00007F0A0FC0FF28843D3E9002307F07CFF73
:102DB00030B141F2EC62C2F200025069FDF762FDEF
:102DC000B045D8DC4F45D6DC72E46068FDF7CEFB39
:102DD0000646A068FDF7CAFBB045814629DD4F4590
:102DE00023DDFFF731F88346BBF1010FC6EB080086
:102DF0003FF43BAB07F076FC0FF23443D3E90023FA
:102E000007F052FF60B141F2EC60C2F2000040698D
:102E1000FDF738FD00F02003D9B200297FF425AB7F
:102E2000B045D2DC4F45D0DC42E4A068FDF7BCFBE6
:102E3000D7E7DAF80400FDF7B7FBD0E7A068FDF7A5
:102E4000B3FBA4E7DAF80400FDF7AEFB9DE7002B27
:102E50005DD16068FDF78AFB0646A068FDF786FB3A
:102E60008146FEF7F1FF411E0129C6EB08007FF6FF
:102E7000FCAA07F037FCEEA3D3E9002307F014FF08
:102E800018B1DAF81400FDF7FDFCB045E1DC4F4560
:102E9000DFDC60686E68DFF8A0A3FDF767FB37181A
:102EA000A068FDF763FB06EB00096068FDF778FB9F
:102EB000A068FDF775FB6068FDF758FB0646A06843
:102EC000FDF754FBBE42804680F28D80C84580F2FB
:102ED0008680FEF7B9FF8346BBF1010FC6EB070002
:102EE0003FF4C3AA07F0FEFBD1A3D3E9002307F008
:102EF000DBFE30B141F2EC60C2F200004069FDF748
:102F0000C1FCBE42D7DBC845D5DBFFF7D1BB60684B
:102F1000FDF72CFB0646A068FDF728FB8146FEF76F
:102F200093FF421E012AC6EB08007FF69EAA07F017
:102F3000D9FBBFA3D3E9002307F0B6FE48B1DAF806
:102F40001400FDF79FFC00F02003D9B200297FF4A4
:102F500084AAB045DBDC4F45D9DC60686E68DFF8D9
:102F6000D8A2FDF703FB3718A068FDF7FFFA06EBC0
:102F700000096068FDF714FBA068FDF711FB6068AD
:102F8000FDF7F4FA0646A068FDF7F0FABE42804667
:102F900032DAC8452CDAFEF757FF8346BBF1010F42
:102FA000C6EB07003FF461AA07F09CFBA0A3D3E99E
:102FB000002307F079FE60B141F2EC60C2F200003C
:102FC0004069FDF75FFC00F02002D3B2002B7FF4D4
:102FD0004CAABE42D3DBC845D1DBFFF769BBA06872
:102FE000FDF7E2FA75E7DAF80400FDF7DDFA6DE7C0
:102FF000A068FDF7D9FACEE7DAF80400FDF7D4FAB5
:10300000C7E7002A00F05D8163BBBA466068FDF740
:10301000ADFA0746A068FDF7A9FA8146FEF714FF4E
:1030200001283FF422AAB8455BDD009B4B4554DDE7
:10303000C7EB080007F056FB7DA3D3E9002307F098
:1030400033FE48B141F2EC61C2F200014869FDF77C
:1030500019FCC1073FF509AAB845D7DC009A4A45D3
:10306000D4DC1DE56068FDF781FA8146A068FDF7B4
:103070007DFA8246FEF7E8FE01283FF4F6A9C8452E
:1030800026DD009850451FDDC9EB080007F02AFB3C
:1030900067A3D3E9002307F007FE78B141F2EC63A0
:1030A000C2F200035869FDF7EDFB00F02001CAB23F
:1030B000002A7FF4DAA9C2073FF5D7A9C845D1DCB9
:1030C00000985045CEDCECE4A068FDF76DFADBE734
:1030D000DBF80400FDF768FAD3E7A068FDF764FAAF
:1030E000A6E7DBF80400FDF75FFA9EE7002A73D03D
:1030F00060BBCA466068FDF739FA8046A068FDF7F4
:1031000035FA8146FEF7A0FE01283FF4AEA9B84586
:103110005DDA0098814556DAC8EB070007F0E2FA5D
:1031200043A3D3E9002307F0BFFD48B141F2EC61AE
:10313000C2F200014869FDF7A5FBC0073FF595A95C
:10314000B845D7DB009A9145D4DB5EE46068FDF7B3
:103150000DFA8046A068FDF709FA8246FEF774FE74
:1031600001283FF482A9474528DD009B534521DD16
:10317000C8EB070007F0B6FA2DA3D3E9002307F048
:1031800093FD78B141F2EC60C2F200004069FDF7B6
:1031900079FB00F02001CAB2002A7FF466A9C107BA
:1031A0003FF563A94745D1DC009B5345CEDC4F4634
:1031B000FFF78EB9A068FDF7F7F9D9E7DBF804004F
:1031C000FDF7F2F9D1E7A068FDF7EEF9A4E7DBF827
:1031D0000400FDF7E9F99CE790BBCA466068FDF77B
:1031E000C5F98046A068FDF7C1F98146FEF72CFEBF
:1031F00001283FF43AA9B8455EDA0098814557DACC
:10320000C8EB070007F06EFA09A3D3E9002307F023
:103210004BFD30B141F2EC61C2F200014869FDF7AB
:1032200031FBB845DADB009A9145D7DBFFF7EDBB00
:10323000E90A7289D54ABD4030120020EC16002000
:103240006068FDF793F98046A068FDF78FF9824624
:10325000FEF7FAFD01283FF408A9B84523DA009BE0
:103260009A451CDAC8EB070007F03CFA4CA3D3E9F7
:10327000002307F019FD60B141F2EC60C2F20000DA
:103280004069FDF7FFFA00F02001CAB2002A7FF47E
:10329000ECA8B845D4DB009B9A45D1DB87E7A06852
:1032A000FDF782F9DEE7DBF80400FDF77DF9D6E7EC
:1032B000A068FDF779F9A3E7DBF80400FDF774F9DE
:1032C0009BE753BBBA466068FDF750F90746A06814
:1032D000FDF74CF98146FEF7B7FD01283FF4C5A87C
:1032E000B84557DD009B4B4550DDC7EB080007F0A4
:1032F000F9F92BA3D3E9002307F0D6FC30B141F252
:10330000EC61C2F200014869FDF7BCFAB845DADCAD
:10331000009A4A45D7DCFFF7C3BB6068FDF726F982
:103320008146A068FDF722F98246FEF78DFD01284F
:103330003FF49BA8C84524DD009850451DDDC9EB2E
:10334000080007F0CFF916A3D3E9002307F0ACFC7F
:1033500060B141F2EC63C2F200035869FDF792FAE2
:1033600000F02001CAB2002A7FF47FA8C845D4DC4F
:1033700000985045D1DCFFF794BBA068FDF714F925
:10338000DDE7DBF80400FDF70FF9D5E7A068FDF7EE
:103390000BF9AAE7DBF80400FDF706F9A2E700BF86
:1033A000E90A7289D54ABD402DE9F041061E45D093
:1033B0002B4C46DB01216068FDF7BAF8A0680121BB
:1033C000FDF7B6F8274D6068A968FDF7D1F8A96840
:1033D000A068FDF7CDF8304607F084F91EA3D3E9C5
:1033E000002307F0E5F941EC100B06F0D3FF296844
:1033F0004FEA40086068FDF709F82968A068FDF702
:1034000005F86068FDF7B2F800EB0807A068FDF763
:10341000ADF880446068124EFDF7A8F80546A06834
:10342000FDF7A4F8AF42F5DC8045F3DC00217068BD
:10343000FCF7ECFFB0680021FCF7E8FF0020BDE8D6
:10344000F08100216068FDF773F8A0680021FDF7A6
:103450006FF87642B6E700BF4B90C81781D444405E
:1034600030120020B81600202DE9F04F2DED028B10
:10347000B0EE418AF0EE618A83B010EE100A10EED1
:10348000901A0022002310EE105A10EE904A07F016
:10349000F7FB00285DD1002328462146002207F0D3
:1034A000F9FB374B00285AD15F689E684FF0050939
:1034B0003846FCF7A9FF80463046FDF757F84FF431
:1034C000004384460022C4F2760328462146CDF804
:1034D00004C007F097FAA34625A3D3E900230446C6
:1034E0000D4651EC180B06F0B1FF02460B46204684
:1034F000294607F05DF920A3D3E9002307F082FAFB
:1035000000230022C4F2A90307F052F9002300228D
:10351000C4F2100307F04CF907F0E4FBB0EE480AE0
:10352000F0EE680ADDF804C049460CEB000A3846A4
:10353000FDF73EF83046FDF719F88245FADC3846CB
:10354000FDF732F83046FDF72FF838464146FCF7D4
:103550005DFF002003B0BDEC028BBDE8F08F04F1ED
:1035600000449F685E684FF00409A1E7AFF3008054
:103570000000000000E044403333333333733840FD
:1035800030120020AFF300802DE9F04F2DED028BBB
:10359000B0EE418AF0EE618ADFF86082DFF8409297
:1035A000D8F80400D9F80C1083B010EE105A10EEC1
:1035B000904AFCF7DDFFD9F80C10D8F80800FCF7AA
:1035C000D7FF284621460022002307F059FB28B1E7
:1035D000002003B0BDEC028BBDE8F08F0121D8F8CC
:1035E0000400FCF7A5FF0121D8F80800FCF7A0FFB4
:1035F000284621460022002307F04CFB002840F01B
:10360000A5804FF0000B4FF0000AC3F6F07B4FF49B
:103610000043002228462146C4F2760307F0F2F95F
:1036200070A3D3E9002304460D4651EC180B06F0B5
:103630000DFF02460B462046294607F0B9F86BA35A
:10364000D3E9002307F0DEF900230022C4F2A90326
:1036500007F0AEF800230022C4F2100307F0A8F828
:1036600007F040FB074651EC180B18EE102A0B46EA
:1036700006F0ECFE5FA3D3E90023CDE9000106F0DC
:10368000E3FE5CA3D3E9002306460C46DDE9000116
:1036900006F0DCFE02460B463046214607F0B2F942
:1036A00052465B4607F084F8D9F80460B7EB460F42
:1036B00005460C4631D902460B463046FEF70EFD54
:1036C000474B5E680023284621460022C3F6F0736C
:1036D000A7EB460607F0DEFA002840D1D8F8040030
:1036E000FCF744FF06EB000AD8F80800FCF73EFFA1
:1036F0003618D8F80400FCF739FF0746D8F8080058
:10370000FCF734FF5745F4DBB042F2DB2A46234690
:10371000D9F80400FEF788FD0DE007EBD77C4FEAEF
:103720006C0602460B463046FEF7D8FC30462A4669
:103730002346FEF779FD0021D8F80400FCF766FE69
:10374000D8F808000021FCF761FE41E74FF0000BBC
:1037500004F100444FF0000ACBF6F07B57E728460F
:1037600021460022002307F095FAD0B9D8F80400CA
:10377000FCF7FCFE06EB000AD8F80800FCF7F6FEA2
:103780008346304606F0AEFF02460B4628462146E9
:1037900007F00EF841EC100B06F0FCFD0BEB0006F9
:1037A000A7E7D8F80400FCF7E1FE0746304606F02C
:1037B00099FF02460B46284604F100418B4606F06D
:1037C000F7FF41EC100B06F0E5FD07EB000AD8F817
:1037D0000800FCF7CBFE36188BE700BFAFF3008084
:1037E000B81600200000000000E0444033333333BB
:1037F000337338400000000000E0544030120020D5
:103800002DE9F04F9A4CDFF86CA26068DAF80C10E2
:1038100010EE107A10EE906A83B0FCF7A9FEDAF889
:103820000C10A068FCF7A4FE3846314600220023A5
:1038300007F026FA8046002840F0A180384631463D
:103840000022002307F026FA0546002840F0FF80FA
:1038500001216068FCF76CFEA0682946FCF768FE51
:103860004FF40043002238463146C4F2760307F095
:10387000C9F800230022C4F2B90306F099FF7AA325
:10388000D3E9002306F094FF41EC100B06F082FD13
:10389000DAF80470774E0190B0EB470F316860683A
:1038A0007AD9FCF7B3FD3168A068714DFCF7AEFD25
:1038B0006068FCF75BFE07EB0008A068FCF756FEAB
:1038C00007EB00096068FCF757FEA068FCF754FEA0
:1038D0006068FCF74BFE0646A068FCF747FEB04563
:1038E000074655DDB945F3DCA068614FFCF75CFE87
:1038F000B045EDDCDAF80410019A7868A2EB4105D6
:10390000FCF734FE05EB0008B868FCF72FFE2F1813
:103910006068574DFCF72AFE0646A068FCF726FEB5
:10392000B045F5DC8742F3DC6868DAF80460FCF740
:103930001DFE3718A868FCF719FE06EB0009686839
:10394000FCF72EFEA868FCF72BFEA8466068FCF783
:103950000DFE0546A068FCF709FEAF42064612DDE3
:10396000B145F3DCA068FCF71FFEAF42EEDC00219E
:103970006068FCF74BFDA0680021FCF747FD0020C4
:1039800003B0BDE8F08FD8F80400FCF70DFEE7E7C0
:103990006868FCF709FEA5E7019BDFF8D4A003EBFC
:1039A000D37BFCF733FD3168A068FCF72FFD60681E
:1039B000FCF7DCFD4FEA6B0808EB0007A068FCF79A
:1039C000D5FD08EB00096068FCF7D6FDA068FCF7A0
:1039D000D3FD6068FCF7CAFD0546A068FCF7C6FD8C
:1039E000AF4206462EDDB145F3DCA068204EFCF761
:1039F000DBFDAF42EDDC7068FCF7B8FD08EB0007BB
:103A0000B068FCF7B3FD80447068FCF7C9FDB0688E
:103A1000FCF7C6FDB1466068FCF7A8FD0546A06846
:103A2000FCF7A4FDAF42064607DDB045F3DCA06815
:103A3000FCF7BAFDAF42EEDC99E7D9F80400FCF7D9
:103A4000B3FDF2E7DAF80400FCF7AEFDCBE7414640
:103A50006068FCF76DFDA0680121FCF769FD06F1C7
:103A60000046FDE6AFF30080391BEC3531520B40C8
:103A700030120020B816002043F60203C4F20203FD
:103A800000221A701870704782B04FF46052002301
:103A90000193C4F20202106883030CD5019A511CF1
:103AA0000191019B4FF46053C4F202031868C0F304
:103AB000404002B0704701994B1C01930198B0F54A
:103AC000A06FE8D1EEE700BF4FF46053C4F20203E9
:103AD00010B49A6802F00C01042922D0082926D0DB
:103AE0004FF41052C0F2F40202604FF46053C4F27B
:103AF000020321499C68C4F303140C5D22FA04F20A
:103B000042609C68C4F382240C5D22FA04F4846051
:103B10009B68C3F34233C95C22FA01F2C26010BC55
:103B200070474FF49052C0F27A020260DDE75C68A1
:103B3000596814F4800F5C6801F03F0214BF4FF421
:103B400090534FF41053C4F388114FF4605414BFD2
:103B5000C0F27A03C0F2F403C4F20204B3FBF2F33E
:103B600003FB01F26168C1F301435C1C6100B2FB1D
:103B7000F1F20260B9E700BF040000204FF4605387
:103B8000C4F202031A6B19B922EA000018637047E5
:103B900010431863704700BF4FF46053C4F2020330
:103BA0001A6C19B922EA00001864704710431864AF
:103BB000704700BF4FF46053C4F202035A6C19B946
:103BC00022EA00005864704710435864704700BFF1
:103BD0004FF46053C4F202031A6A19B922EA0000D2
:103BE0001862704710431862704700BF4FF460536B
:103BF000C4F202035A6A19B922EA000058627047F7
:103C000010435862704700BF00B583B002AA06484F
:103C100006498069002342F8043DFDF7B3FC00B972
:103C2000019803B000BD00BFEC16002024D80008A6
:103C300000B583B002AA064806498069002342F80D
:103C4000043DFDF79FFC00B9019803B000BD00BF23
:103C5000EC1600209CD8000800B583B002AA0648E4
:103C600006498069002342F8043DFDF78BFC00B94A
:103C7000019803B000BD00BFEC16002028D9000851
:103C800000B583B002AA064806498069002342F8BD
:103C9000043DFDF777FC00B9019803B000BD00BFFB
:103CA000EC160020A0D9000800B583B002AA06488F
:103CB00006498069002342F8043DFDF763FC00B922
:103CC000019803B000BD00BFEC16002018DA000810
:103CD00000B583B002AA064806498069002342F86D
:103CE000043DFDF74FFC00B9019803B000BD00BFD3
:103CF000EC1600207CDA000800B583B002AA064862
:103D000006498069002342F8043DFDF73BFC00B9F9
:103D1000019803B000BD00BFEC16002008DB0008CE
:103D200030B58FB00EAA114C1149A069002342F89A
:103D3000383D6A460123FDF725FCA8B90098002804
:103D400012DD451E02460B480B4905EB85030B4D62
:103D500000EB431301A82B6006F0FEFFA0690849A1
:103D600001AAFDF75BFA00980FB030BDEC160020F9
:103D700094DB000850F60008A4E000083C12002084
:103D8000B8E00008F0B58FB00EAA164F1649B86912
:103D9000002342F8383D6A460123FDF7F3FB044651
:103DA000E8B9009C002C1ADD1049114D601E2C262C
:103DB00006FB001202F548760FCE0FC50FCE0FC5D9
:103DC00096E8070085E8070022460A4901A806F0A0
:103DD000C3FFB869084901AAFDF720FA009C2046F4
:103DE0000FB0F0BDEC16002020DC000850F60008F3
:103DF000B8160020C8E00008D8E0000810B58AB066
:103E00000AAA104C1049A069002342F8243D01235E
:103E1000FDF7B8FBA0B9A069FDF780F90B49019A3D
:103E200002A806F099FF0421182202ABA069FDF751
:103E3000E9F9A069FDF76CF9019801F045FC0198DA
:103E40000AB010BDEC160020ACDC0008ECE0000865
:103E500030B58FB00EAA134D1349A869002342F85C
:103E6000383D6A460123FDF78DFB0446B0B9009941
:103E7000002913DD0D4C0E4AE8682C23013903FBA1
:103E8000014102F001FB0B49009A044601A806F02B
:103E900063FFA869084901AAFDF7C0F920460FB0E1
:103EA00030BD00BFEC16002020DC000870F90008CF
:103EB000B8160020FCE000080CE1000830B583B023
:103EC00002AC002344F8043D034DA869034922468F
:103ED0000023FDF757FBF8E7EC16002010DD000883
:103EE00010B541F20C73C2F2000382B000241C80B2
:103EF0002046102369460093C4F2020003238DF884
:103F000004308DF8074001F0CDFD01200121C0F201
:103F10004000FFF733FE4FF480700121FFF74AFEA7
:103F2000204602B010BD00BF2DE9F04346F2104814
:103F3000C4F202089BB08146404602F00BF842F200
:103F40004C03C4F201034FF4006241F20C770024E9
:103F50000125C2F2000740460BA90C9312924FF4C0
:103F600080734FF400324FF4005614931592139659
:103F70000B940D970E940F95109411941694179519
:103F8000189419944FF4005602F0DAF84046294686
:103F900002F01AF9C4F2010601A84FF4706104910D
:103FA00001940294039400F05FF8304605A905944B
:103FB0008DF818408DF81950079409948DF8285001
:103FC00000F02AF83046294600F0C4F82A460723B4
:103FD0003046042100F06AF83046294600F0C4F863
:103FE0003046294600F058F8304600F0ADF8C9F8E0
:103FF000007020461BB0BDE8F08300BF48B111B18E
:1040000040F20110704703881805030D138008461D
:1040100070474FF48170704742680B79F0B422F01A
:10402000407C0E68CD680C694F792CF48072164381
:1040300046EA0323436086682C434FF2FD738D6884
:10404000CCF2FF0344EA05023340134343EA47023C
:104050008260097DC26A4B1E22F47001DAB241EA25
:104060000253C362F0BC704770B44FF40C5290E836
:104070004200C4F2010285685468C06843F2E0035C
:104080003143CFF6FC7329432340014341EA030047
:10409000506070BC704700BF836819B923F00101FC
:1040A0008160704743F0010282607047092970B453
:1040B00020D901EB41041E3CC668072505FA04F52A
:1040C00026EA050503FA04F345EA0304062AC46058
:1040D0001FD90C2A02EB820229D9C46A413A1F2354
:1040E00003FA02F324EA030301FA02F11943C1625D
:1040F00070BC704701EB41040669072505FA04F519
:1041000026EA050503FA04F345EA0304062A0461D6
:10411000DFD8531E03EB8302446B1F2303FA02F321
:1041200024EA030301FA02F119434163E0E7233A69
:10413000046B1F2303FA02F324EA030301FA02F1DA
:1041400043EA01020263D3E7836843F08041816060
:10415000704700BF836819B923F48071816070478C
:1041600043F4807282607047836819B923F4007148
:104170008160704743F400728260704708B51A4B43
:1041800000225A6001F02CFE0120FFF775FCFFF7BA
:104190007BFC0028FBD0154944F6D3500A68C1F2D5
:1041A0006200A0FB02204EF210034FF46D42CEF2EB
:1041B00000038109CEF20002481EF021586082F807
:1041C0002310072000229A60186000F047F800B121
:1041D00008BD4FF480510448C4F201014FF4E132AC
:1041E000BDE8084000F05AB840120020240000202A
:1041F00041F24023C2F2000358687047034A5368F3
:10420000C01851688142FCD1002070474012002044
:104210000FB410B59AB01CAC632154F8042B01A85C
:104220002346009407F0C0FB01A806F0B9FD41F257
:104230004023C2F20003024601A9186800F0C8F842
:1042400000201AB0BDE8104004B0704741F240238E
:10425000C2F200035A68501C5860704741F248226D
:10426000C2F200021146002341F8043B081D5360CE
:1042700040F8043B0246184642F8043B42F8043B2F
:1042800042F8043B42F8043B42F8043B42F8043B4A
:1042900042F8043B42F8043B136070472DE9F04FAD
:1042A000054683B0904600B30E78E6B9474C217DB1
:1042B0004FF48050C4F201000129206100F0828097
:1042C00010200121FFF776FC012001460026FFF7B0
:1042D00055FC4FF4806A4FF4007B4FF009090A2720
:1042E000C4F2020625E0012E04D040F6033003B0EC
:1042F000BDE8F08F354C94F82C204FF48843C4F27D
:104300000003012AA3625CD031464FF40030FFF76E
:1043100043FC30463146FFF731FC4FF480664FF0E6
:10432000080A4FF0040B18344FF002090327C4F2B7
:10433000020649460722304601F06CFC49463046E9
:10434000072201F067FC39463046072201F062FC83
:1043500007223946304601F05DFC00270223304633
:1043600069464FF001098DF804308DF80530CDF81D
:1043700000B08DF8067001F095FB30466946CDF827
:1043800000A08DF804708DF8069001F08BFB0C22D4
:10439000206984F814902146A780E78027816281F4
:1043A000A781C4F80080FCF7E3FA20694946FCF7CE
:1043B0004FFB20691021FCF75DFB0028F9D12C6030
:1043C00095E718342C60002091E700BF48120020C8
:1043D00070B5044688B18E180D460AE0206915F8BC
:1043E000011BFCF743FB20694021FCF743FB00283D
:1043F000F9D0B542F2D1002070BD40F6033070BD57
:1044000010B5204B1A7A012A86B037D00024042038
:1044100001211C605C609C60FFF7BEFB0220012153
:10442000FFF7ACFB4FF48060C4F2020008210222C7
:1044300001F0F0FB4FF480600222C4F2020001A9F7
:104440004FF480738DF8082001938DF80A408DF8A1
:10445000094001F027FB07224FF400600492C4F2E8
:10446000000002F5A07203A9ADF80C20ADF81440CD
:10447000ADF80E408DF8164005F056FE002006B04F
:1044800010BD00BF781200202DE9F041174C237AAF
:1044900086B0064623BB4FF40065C4F20005012731
:1044A000302201A9284603930223ADF80420ADF879
:1044B0001030ADF8067005F0FBFE2846082105F027
:1044C0004DFF2846394605F089FE2772288C20F4D6
:1044D00080710A040648130C2B84B84680F82270B9
:1044E0003460002006B0BDE8F08100BF78120020E3
:1044F000B816002070B52F4B93F8223005460C46B5
:10450000164663B3002836D0002937DDB1F5FA3FEF
:1045100027DC4068002842D04FF4FA3191FBF4F2D6
:10452000531E98B26C60002841D14FF40064C4F26D
:1045300000040121228C93B243F480702084204631
:1045400005F05AFE3046FFF759FE2046002105F0DF
:1045500053FE218C21F480721304180C2084002057
:1045600070BD69604FF6FF714FF40060C4F2000047
:1045700005F032FED9E740F2012070BD4FF400642F
:10458000C4F200042046218C21F480721304190C1B
:104590002184002105F030FE00206860C5E74FF45B
:1045A0000060C4F20000012105F026FEB4E70146D8
:1045B000DAE700BFB816002030B53D4CC1B0A069A5
:1045C000FCF7ACFD6069FCF75DF980F0020205467E
:1045D0003849C2F34002684606F0BEFB6B460A212A
:1045E0000122A069FCF70EFE85F00400C0F38002F2
:1045F0003149684606F0B0FB0A210A466B46A069BD
:10460000FCF700FE85F01003C3F300122B49684647
:1046100006F0A2FB6B460A211322A069FCF7F2FD0B
:1046200005F00102264982F00102684606F094FB7B
:104630006B460A211C22A069FCF7E4FD85F0080006
:10464000C0F3C0021F49684606F086FB0A212522F6
:104650006B46A069FCF7D6FD85F02003C3F340123A
:104660001949684606F078FB0A212E226B46A0699C
:10467000FCF7C8FDA069FCF74BFD3220FFF7BEFD3B
:104680004FF40060C4F202004FF4807101F0B2FAFE
:10469000012894D04FF40060C4F202004FF48071FE
:1046A00001F0A8FA0128F5D1002041B030BD00BFCB
:1046B000EC16002018E5000828E5000838E5000899
:1046C00048E5000858E5000868E500082DE9F04FC6
:1046D000F5B0B44905464FF4C87210A806F02AFB9D
:1046E00041F2EC61C2F20001002415AA8869069427
:1046F0008DF853400592FCF711FD069B0A954FF08B
:10470000080C18204FF00C080126CDF820C00990A5
:104710000793CDF834800C96DDF830904FEA890786
:104720004D466C1C07EB090009F1FF32FBB210AFDC
:10473000002604EB840102EB820507EB80040DF1F7
:10474000400A0AEB81090F930AEB850A0394374666
:10475000B346354615E0083607F118080496039F5E
:10476000DDF810C00135BE1C0B2D03960BF1020BBA
:1047700047465FFA8CF609F102090AF1020A00F0D5
:10478000E880DDF828C01CF80540002CE3D0E307E2
:1047900000F1A58006F1080C07F11808CDF810C04B
:1047A00004F00203DAB27AB3DDF814E0CDF8008049
:1047B0000EEB0B0CDDF814E0CDF82CC00EEB0B0C5F
:1047C000DDF814E0CDF838C00EEB0B0C4FF0DB0E2B
:1047D0000799099B0CF812EC42468CF802E08CF821
:1047E00016E07148CDF808C0FFF712FD41F2EC6009
:1047F000DDF810C00699089BC2F200005FFA8CF247
:1048000080690092FDF77EFA04F00401CBB2EBB1AF
:1048100009996548DB2289F8002089F8012089F888
:1048200002200B463A46CDF80080FFF7F1FC41F23A
:10483000EC60DDF810C0C2F200005FFA8CF1806914
:104840000091089932460B46FDF75CFA04F0080324
:10485000DAB22AB305980599009714380B90DDF861
:104860002CC0099B50484FF0DB0E0CF80BE01431C4
:10487000DDF814C00E910CF80BE0DDF838C0079994
:104880000CF80BE03A46FFF7C3FC41F2EC63C2F2CE
:1048900000030699986900963246089BFDF732FAA4
:1048A00004F01004E2B2002A3FF459AF039C607890
:1048B000232837D007F10C0223270D9967700123B5
:1048C0003A48FFF7A5FC41F2EC61C2F20001043660
:1048D00088690F99F2B20123FDF728FA3FE707999B
:1048E0003148DB2207F118088AF800208AF80120F5
:1048F0008AF802200B463A46CDF80080FFF788FC84
:1049000041F2EC6006F1080CC2F200005FFA8CF193
:10491000806900910699CDF810C032460B46FDF72C
:10492000F1F93DE70C20242363703A180D990090AB
:1049300003461F48FFF76CFC41F2EC620423C2F20D
:104940000002F41890690F990093E2B2FDF7E4F9C0
:1049500005E70D9C0C9B0699089818349A1C0D9439
:10496000079B099C0C9218331834059A07930994F5
:104970000A9B0C9C0831083028320B33C9B2C0B2F4
:10498000172C0691059208900A937FF4C5AE41F268
:10499000EC61C2F20001886975B0BDE8F04FFCF728
:1049A000B7BB00BF78E500082CE700085CE700080B
:1049B00044E700082DE9F047034688B08946684679
:1049C00019464A4606F0B6F99DF80160B9F1010FA3
:1049D0008DF8006069DD3746C7EB060E0124BEF195
:1049E000030F4FF0B40857DDAEF1040E671C08AAA0
:1049F000D01910F8205CB5425AD1B9455CDD00A948
:104A00000A1902239678C4EB0901B54201F00100AE
:104A100004EB030715D18B4213D030B1D6780323B2
:104A2000B54204EB03070AD00BE00133E718D65C6C
:104A3000B54206D10133E718D65CB54201D18B42AD
:104A4000F3D108FB03FABEF1030F2BD01EF1030FC5
:104A500014BF7046012005F045FE4FF400430022CC
:104A6000C4F2560305F0A4FE01F10045044645ECEE
:104A7000104BFEF7C5FE002150460A46FDF77CFCB0
:104A8000B94512DD08ACE5193C4615F8217CC7EBA9
:104A9000060EBEF1030FA7DCBEF1000FB8BF0EF18A
:104AA000040EA3E74FF0FF30D5E708B0BDE8F0876C
:104AB0002E464FF0B40AC6E74FF0B40AC3E700BF72
:104AC0002DE9F04FBE4E34688BB083468A461546BA
:104AD0001F46002C00F00781BA4C5846FFF7F6FD40
:104AE00094F82120002A00F0E38094F828000028A0
:104AF00000F0EE80B44A5069FBF7C6FE616A884256
:104B000000F2E180B068002840F0CF8005EB85041A
:104B100005EB44030BEB0302039281460446049524
:104B2000002840F0B280A949DDF80C80625C18F8DA
:104B30000A301A4240F0A9800D1D05F11007DDF87A
:104B4000108059F8071059F8053008EB0102D7B268
:104B500007EB87050AEB030107EB45030BEB0302A9
:104B6000CDB2515D01F01003DAB2002A40F08D8021
:104B700096E8005041F21071C2F20001BCF1000F42
:104B800011F80E3040F3E980CCEB0E02092A00F355
:104B90002181E64580F229810CF101035A1806A90A
:104BA00001EB0C00CB43CEEB0000059112F8018C19
:104BB00019180191059908F1020881F801800DF199
:104BC0001903DDF80480013A834208F0010117D08F
:104BD00039B112F8011D023159700DF11A038342E7
:104BE0000ED012F8018C511E08F1020812F8022CA6
:104BF00003F8018F023203F8012F4A1E8342F0D1DD
:104C0000CEEB0C0C0CF1010E0EF101080AA8864443
:104C10005FFA84FC0EF810CC9DF81930CDF808C06E
:104C20000020024601468DF81830FDF7A5FB9FEDE8
:104C3000620BFEF7E5FD05984146FFF7BBFEDDF888
:104C400008C0716841F2107E4FF000084B1CC2F2A0
:104C5000000E4146424640460EF803C07360CDF850
:104C600008C0C6F80080FDF787FB42464FF00043BE
:104C700043EC102BFEF7C4FDDDF808C0584629466A
:104C80003A466346FFF71CFFB0600134042C09F17B
:104C900004097FF445AF40B93068494A08B9516802
:104CA00011607368581E706000200BB0BDE8F08F73
:104CB00005EB850005EB40010BEB010313F80A201F
:104CC000102A7FF41FAF72684149501C0F54ECE763
:104CD0003D494869FBF7D8FD636A9842F3D3B06851
:104CE0000028E2D112E702EB820002EB40010BEB5D
:104CF0000104354814F80A3043F0100204F80A2081
:104D00004069FBF7BFFD791C80F0200800F0010E20
:104D100080F00803C8F340188EF0010EC3F3C00002
:104D2000C9B2BFB107F1FF3C5FFA8CF3032F08BF94
:104D3000002114F80A2000FA07F042F010020243A2
:104D400008FA03F002430EFA01F142EA010304F803
:104D50000A30C1E64FF00303EBE741F2842141F250
:104D600010780EF10102E31AC2F20001C2F200084B
:104D70005FFA84FC032B4A6008F802C013D14FF499
:104D80000041C4F256010B46024643EC102BCDF80D
:104D900008C0FEF735FD0021B4200A46FDF7ECFA05
:104DA000DDF808C06AE7DA1C26D14FF40041CCF2E6
:104DB0005601E8E7AFF3008000000000008066C005
:104DC00084120020B8160020EC16002008E7000826
:104DD0001017002001460246FDF7CEFA9FED100B9A
:104DE000FEF70EFD5FFA84FC2BE706A84FF00208E1
:104DF0004FF0010E059009E71846CDF808C005F000
:104E000071FC4FF400430022C4F2560305F0D0FCBD
:104E1000DDF808C001F10041B5E700BFAFF3008045
:104E20000000000000E080C02DE9F04F7C4CE568F8
:104E300083B0022D9DF830700E46904699462CD0D6
:104E4000012800F0C580032857D000284BD1754BAE
:104E50005869FBF717FD05464620FEF7A5FA4FF403
:104E6000FA70FFF7CBF96FF02900FEF79DFAE368BF
:104E7000581CE907E06036D505F02005EDB245B9CC
:104E80000D9A009701920320314642464B46FFF7A8
:104E9000CBFF002003B0BDE8F08F20690023E36062
:104EA0000028F6D04542032D00F0AB8015F1030F2A
:104EB00008BF0125002002460146FDF75DFA28469D
:104EC00005F010FC4FF400430022C4F2560305F035
:104ED0006FFC024601F1004343EC102BFEF790FCFF
:104EE00000222261D5E70D99009701914246314693
:104EF0004B460120FFF798FFCBE700200246014612
:104F0000DFF820A1FDF738FA9FED410BFEF778FCA2
:104F1000DAF81400FBF7B6FC226905460323501E9D
:104F2000C8F200030340002B206165DBD81C062873
:104F300048D8DFE800F0444704474447040003230F
:104F40009B46E2680D99012A0B6085D1012E83D121
:104F5000DAF81400FBF796FC0BF1010380F0200C4B
:104F600000F0010E80F00800CCF3401C8EF0010E22
:104F7000C0F3C000DAB2BBF1000F45D00BF1FF3136
:104F8000C9B2BBF1030F08BF002207EB870307EB91
:104F90004303434400FA0BFB13F8090040F01000F0
:104FA0000CFA01F140EA0B0008430EFA02F240EA63
:104FB000020103F809104046FFF788FB4CE7012384
:104FC0009B46BEE7002BB8BF5B425FFA83FBB8E7A6
:104FD000002001460246DFF84CA0FDF7CDF99FED19
:104FE0000E0BFEF70DFCDAF81400FBF74BFC216901
:104FF00005460323481C93E7013B63F00302531C5F
:1050000094E74FF0FF3555E70321BEE7AFF300808B
:10501000000000000080564000000000008056C0E4
:1050200084120020EC1600202DE9F04F9A4DAB467B
:105030001F4681468A469446BBE80F0091B005ACF6
:105040000FC4BBE80F000FC49BE8070095F8206071
:105050009DF86880D7F800B084E8070036B9B8F149
:10506000010F4BD0304611B0BDE8F08F8B4C40F2B1
:10507000DC53A0694FF0010E85E80840CDF80CC064
:10508000FCF74CF8B8F1010FDDF80CC000F0BC8063
:105090006069CDF80CC0FBF7F5FB00F00803D9B24E
:1050A000DDF80CC0002900F0A580C6071CD500F073
:1050B0002000C2B2002A40F0E280CDF800C0019783
:1050C000032041464A465346FFF7AEFE05AD0FCDDD
:1050D000714C0FC40FCD0FC495E80700002684E87B
:1050E0000700C7F800B0BDE7CDF800C00197414602
:1050F0004A4653460120FFF797FEE7E7674E40F622
:10510000B8321423706985E80C00CDF80CC0FBF7A9
:10511000B9FB5FFA8BF480F0200700F0010580F006
:105120000801631CC7F3401785F00102C1F3C000FA
:10513000DBB2DDF80CC0002C00F09D80651EE9B2EA
:10514000032C08BF00230CEB8C050CEB450E09EB80
:105150000E0500FA04F415F80A0040F0100007FAF2
:1051600001F104430C4302FA03F244EA020305F896
:105170000A304846FFF7AAFA002001460246FDF72A
:10518000FBF89FED410BFEF73BFB7069FBF77AFBE9
:1051900015F80A6080F02004C4F34011314380F018
:1051A000080241F01003C2F3C00600F0010043EA18
:1051B000460480F0010144EA810205F80A204846CD
:1051C000FFF784FA002001460246FDF7D5F89FED6F
:1051D000300BFEF715FB05AD4846FFF777FA0FCD0C
:1051E0002D4C0FC40FCD0FC495E80700002684E8AE
:1051F000070037E7CDF800C0019708464A46414608
:105200005346FFF711FE61E760693D78FBF73AFB13
:105210006E1C80F0200200F0010E80F00801C2F345
:1052200040128EF0010EC1F3C001F6B2DDF80CC0E1
:105230001DB3681EC0B2032D08BF00260CEB8C0303
:105240000CEB43034B4401FA05F513F80A1041F047
:10525000100102FA00F2294311430EFA06F241EA64
:10526000020603F80A604846CDF80CC0FFF72EFA94
:10527000DDF80CC00CE7032165E70320DEE74FF003
:10528000FF36EFE6AFF3008000000000008056C05C
:105290000000000000805640B8160020EC160020E8
:1052A000F0B5864C9BB0A069FBF738FF00210922BE
:1052B000834BA069FBF7A6FF824BA0690021372230
:1052C000FBF7A0FFA069FBF723FF6069FBF7DCFA9F
:1052D00006467D49324601A805F03EFD0A2112220C
:1052E00001ABA069FBF78EFFA069FBF711FFFEF78A
:1052F0007FFF00F5FA7508E000F07CFC012840F023
:10530000AE80FEF775FF8542CDD94FF400600146AF
:10531000C4F2020000F06EFC01284FF400604FF46C
:105320008071C4F20200E7D04FF40060C4F20200C2
:105330004FF4006100F05EFC0128F5D1C820FEF7B3
:105340005DFF3246614901A805F006FDA069FBF743
:10535000E5FE0221092201ABA069FBF753FFA0691A
:10536000FBF7D6FE4FF47A70FEF748FFA069FBF713
:10537000D5FE00210922564BA069FBF743FF514B94
:10538000A06900213722FBF73DFFA069FBF7C0FEB3
:105390006069FBF779FA07464B493A4601A805F0E0
:1053A000DBFC0A21122201ABA069FBF72BFFA069ED
:1053B000FBF7AEFEFEF71CFF00F5FA7507E000F004
:1053C00019FC01286BD1FEF713FF8542CED94FF4AB
:1053D00000600146C4F2020000F00CFC01284FF40A
:1053E00000604FF48071C4F20200E8D04FF4006016
:1053F000C4F202004FF4006100F0FCFB0128F5D17B
:10540000C820FEF7FBFE3246304901A805F0A4FC97
:10541000A069FBF783FE0221092201ABA069FBF71B
:10542000F1FEA069FBF774FE4FF47A70FEF7E6FE1A
:10543000B742B4BF3A463246B742ACBFC2EB0701EF
:10544000C2EB0601234BBE4201EBD17002EB6002BE
:10545000D4BF002601265A6283F828601CE04FF46E
:105460000060C4F202004FF4006100F0C3FB0128A9
:10547000F5D1C820FEF7C2FEA069FBF74FFE02215E
:105480000922154BA069FBF7BDFEA069FBF740FEA2
:105490004FF47A70FEF7B2FE00201BB0F0BD4FF45F
:1054A0000060C4F202004FF4006100F0A3FB012889
:1054B000F5D1C820FEF7A2FE58E700BFEC16002089
:1054C00070E7000888E700089CE70008ACE70008E0
:1054D000D4E70008B8160020C0E700082DE9F0471F
:1054E0000027A4B04BF6EF633946792205A8ADF842
:1054F0000A300397049705F026FC6A4BDFF8C0C119
:10550000694CDFF8C08193E807001D4605AE03C66D
:1055100003CD9E46CDF82310CDF81F00BEE8030052
:105520009946CDF82E10CDF82A00B9E80300B6460A
:1055300010AE03C6CDF8391031464FEA124921F8B2
:10554000022B9A46CDF8350081F80090BAE80300A6
:105550002E882EF8022BAD788EF800901A468DF822
:1055600029508DF834508DF83F50ADF82760ADF8D4
:105570003260ADF83D60CDF84F10CDF84B0003CA56
:105580001A46CDF85A10CDF8560003CACDF861007E
:10559000CDF8651093E807000DF16C0EAEE803003E
:1055A00003CB2EF8022BCDF8770005A88EF80090DB
:1055B000CCF80870CCF80470CCF80070CDF87B10F3
:1055C0008DF855508DF860508DF86B508DF88150E6
:1055D000ADF85360ADF85E60ADF86960ADF87F601E
:1055E000FBF736FCA069FBF799FD0D2101222F4B3B
:1055F000A069FBF707FEA069FBF78AFD4FF4FA608C
:10560000FEF7FCFD2A48FEF703FEA069FBF786FDC6
:105610000D210122274BA069FBF7F4FDA069FBF7E0
:1056200077FDFAF7B3FE052101200A4604AB00908E
:1056300005A8FFF7F9FCFBF78FFC05210A469DF84A
:10564000103005A8FFF73CFA24AD45F8840DFAF7B1
:10565000C7FE414605AA7923E06800F015FF08F16E
:105660007901154AE0681E2300F00EFF08F1980149
:105670002A460423E06800F007FF08F19C01E06877
:105680000DF10A02022300F0FFFE0C49C1F8008070
:10569000FEF7B4FB0028FBDC039A501C24B0BDE8E5
:1056A000F08700BF20E80008EC160020E8E70008BB
:1056B000F4E7000818E80008101700203C1200204A
:1056C0008412002050F600082DE9F0478CB0002429
:1056D000B0F10008039423DDA74F3B6803B3FAF74A
:1056E00055FE386800942146224603ABFFF79CFC28
:1056F000FBF732FCA14D6869FBF7C4F800F0080025
:10570000C1B20029F7D0FEF773FDB8F1020F0646CB
:1057100009D0B8F1030F00F09D80B8F1010F5DD002
:105720000CB0BDE8F0873C6842465A200021D4F80E
:105730009870FCF721FE79344FF0010A013F4FF0D9
:10574000B408BA4544DA0AF1010904EB090214F875
:10575000091012F8013CC81A61D15078884240F013
:10576000F880B94580F2F58009F1010304EB0A0CD9
:10577000E2189CF8021050786FEA090E0EEB070A47
:10578000022288420AF0010919D1BB4217D0B9F1AF
:10579000000F06D00133E0180322407888420CD075
:1057A0000DE00133E01801324078884207D101331F
:1057B000E01801324078884201D1BB42F1D108FBA8
:1057C00002F09A4600210322FCF7D6FDBA45BADB67
:1057D00000210A465A20FCF7CFFD06E03A6802F1A4
:1057E0007900D2F89810FFF7E5F8FEF701FD861B67
:1057F000FAF7F6FD44F6D351C1F26201A1FB06238C
:105800009A094FF47A7000FB12635D4904A805F011
:10581000A3FAA8695B4904AAFBF700FD80E7032807
:1058200015D010F1030F08BF012004F05BFF4FF407
:1058300000430022C4F2560304F0BAFF9FED4C1B54
:1058400041EC100B0020FDF70FFECA4679E74FF040
:10585000FF30EAE73B68D3F89870022F03F1790430
:1058600005DD93F87B0093F87A10884274D05A20B3
:1058700000210222FCF780FD4FF0010A013F4FF0AA
:10588000B408BA4541DA0AF1010904EB090214F837
:10589000093012F8010C181A3DD15178994255D1AE
:1058A000B94553DA09F10103E218A2446FEA090984
:1058B00050789AF8021009EB070202F0010902225F
:1058C000884219D1BB4217D0B9F1000F06D001337D
:1058D000E0180322407888420CD00DE00133E01834
:1058E00001324078884207D10133E0180132407814
:1058F000884201D1BB42F1D108FB02F09A46002157
:105900000322FCF739FDBA45BDDB5A2000210122F4
:10591000FCF732FD69E7032815D010F1030F08BF2B
:10592000012004F0DFFE4FF400430022C4F25603CE
:1059300004F03EFF9FED0E1B41EC100B0020FDF725
:1059400093FDCA469DE74FF0FF30EAE7CA46B42010
:10595000D5E7CA46B42035E74FF48770002102220C
:10596000FCF70AFD4FF0020A013F88E7AFF3008021
:1059700000000000008056403C120020EC16002081
:105980002CE800083CE8000830B5022083B0012173
:10599000FEF7F4F802AC4FF480631D46C4F2020532
:1059A00044F8083D01220023284669468DF804206A
:1059B0008DF80630032202238DF807308DF805207C
:1059C00000F070F8284669464FF40062009200F03B
:1059D00069F84FF4805328466946009300F062F856
:1059E00003B030BD2DE9F041012188B04FF4804073
:1059F0004FF48064FEF7D0F8C4F2020402200121C3
:105A0000FEF7BCF80D210522204600F003F908AE90
:105A1000052220460F2100F0FDF84FF4005346F810
:105A20001C3D00254FF00208204631464FF46057D8
:105A3000C4F200078DF808808DF809808DF80A50AF
:105A40008DF80B8000F02EF831464FF400422046CE
:105A5000019200F027F8384600F094FC4FF40073F0
:105A60000124384603A9ADF8163007224FF482739B
:105A7000ADF80C50ADF81050ADF81280ADF81440F0
:105A8000ADF81850ADF81A50ADF81C20ADF80E3036
:105A900000F0B0FC3846214600F0D6FC08B0BDE866
:105AA000F08100BF2DE9F00F0E6884B00022884617
:105AB00013464FF0010B00968A4607E0DDF804908C
:105AC000A14539D04B1CAA1C102B54D0009E0BFAB8
:105AD00003F5591C05EA060C0BFA01F42640AC4507
